{
	"contracts/FundMe.sol": {
		"FundMe": {
			"abi": [
				{
					"inputs": [],
					"stateMutability": "nonpayable",
					"type": "constructor"
				},
				{
					"inputs": [],
					"name": "MINIMUM_USD",
					"outputs": [
						{
							"internalType": "uint256",
							"name": "",
							"type": "uint256"
						}
					],
					"stateMutability": "view",
					"type": "function"
				},
				{
					"inputs": [
						{
							"internalType": "address",
							"name": "funder",
							"type": "address"
						}
					],
					"name": "addressToAmountFunded",
					"outputs": [
						{
							"internalType": "uint256",
							"name": "amountFunded",
							"type": "uint256"
						}
					],
					"stateMutability": "view",
					"type": "function"
				},
				{
					"inputs": [],
					"name": "fund",
					"outputs": [],
					"stateMutability": "payable",
					"type": "function"
				},
				{
					"inputs": [
						{
							"internalType": "uint256",
							"name": "",
							"type": "uint256"
						}
					],
					"name": "funders",
					"outputs": [
						{
							"internalType": "address",
							"name": "",
							"type": "address"
						}
					],
					"stateMutability": "view",
					"type": "function"
				},
				{
					"inputs": [],
					"name": "owner",
					"outputs": [
						{
							"internalType": "address",
							"name": "",
							"type": "address"
						}
					],
					"stateMutability": "view",
					"type": "function"
				},
				{
					"inputs": [],
					"name": "withdraw",
					"outputs": [],
					"stateMutability": "nonpayable",
					"type": "function"
				}
			],
			"devdoc": {
				"kind": "dev",
				"methods": {},
				"version": 1
			},
			"evm": {
				"assembly": "    /* \"contracts/FundMe.sol\":201:1503  contract FundMe {... */\n  mstore(0x40, 0x80)\n    /* \"contracts/FundMe.sol\":457:555  constructor() {... */\n  callvalue\n  dup1\n  iszero\n  tag_1\n  jumpi\n  0x00\n  dup1\n  revert\ntag_1:\n  pop\n    /* \"contracts/FundMe.sol\":490:500  msg.sender */\n  caller\n    /* \"contracts/FundMe.sol\":482:487  owner */\n  0x02\n  0x00\n    /* \"contracts/FundMe.sol\":482:500  owner = msg.sender */\n  0x0100\n  exp\n  dup2\n  sload\n  dup2\n  0xffffffffffffffffffffffffffffffffffffffff\n  mul\n  not\n  and\n  swap1\n  dup4\n  0xffffffffffffffffffffffffffffffffffffffff\n  and\n  mul\n  or\n  swap1\n  sstore\n  pop\n    /* \"contracts/FundMe.sol\":201:1503  contract FundMe {... */\n  dataSize(sub_0)\n  dup1\n  dataOffset(sub_0)\n  0x00\n  codecopy\n  0x00\n  return\nstop\n\nsub_0: assembly {\n        /* \"contracts/FundMe.sol\":201:1503  contract FundMe {... */\n      mstore(0x40, 0x80)\n      jumpi(tag_1, lt(calldatasize, 0x04))\n      shr(0xe0, calldataload(0x00))\n      dup1\n      0x3ccfd60b\n      eq\n      tag_2\n      jumpi\n      dup1\n      0x3e47d6f3\n      eq\n      tag_3\n      jumpi\n      dup1\n      0x6b69a592\n      eq\n      tag_4\n      jumpi\n      dup1\n      0x8da5cb5b\n      eq\n      tag_5\n      jumpi\n      dup1\n      0xb60d4288\n      eq\n      tag_6\n      jumpi\n      dup1\n      0xdc0d3dff\n      eq\n      tag_7\n      jumpi\n    tag_1:\n      0x00\n      dup1\n      revert\n        /* \"contracts/FundMe.sol\":792:1310  function withdraw() public onlyOwner {... */\n    tag_2:\n      callvalue\n      dup1\n      iszero\n      tag_8\n      jumpi\n      0x00\n      dup1\n      revert\n    tag_8:\n      pop\n      tag_9\n      tag_10\n      jump\t// in\n    tag_9:\n      stop\n        /* \"contracts/FundMe.sol\":345:421  mapping(address funder => uint256 amountFunded) public addressToAmountFunded */\n    tag_3:\n      callvalue\n      dup1\n      iszero\n      tag_11\n      jumpi\n      0x00\n      dup1\n      revert\n    tag_11:\n      pop\n      tag_12\n      0x04\n      dup1\n      calldatasize\n      sub\n      dup2\n      add\n      swap1\n      tag_13\n      swap2\n      swap1\n      tag_14\n      jump\t// in\n    tag_13:\n      tag_15\n      jump\t// in\n    tag_12:\n      mload(0x40)\n      tag_16\n      swap2\n      swap1\n      tag_17\n      jump\t// in\n    tag_16:\n      mload(0x40)\n      dup1\n      swap2\n      sub\n      swap1\n      return\n        /* \"contracts/FundMe.sol\":263:305  uint256 public constant MINIMUM_USD = 5e18 */\n    tag_4:\n      callvalue\n      dup1\n      iszero\n      tag_18\n      jumpi\n      0x00\n      dup1\n      revert\n    tag_18:\n      pop\n      tag_19\n      tag_20\n      jump\t// in\n    tag_19:\n      mload(0x40)\n      tag_21\n      swap2\n      swap1\n      tag_17\n      jump\t// in\n    tag_21:\n      mload(0x40)\n      dup1\n      swap2\n      sub\n      swap1\n      return\n        /* \"contracts/FundMe.sol\":430:450  address public owner */\n    tag_5:\n      callvalue\n      dup1\n      iszero\n      tag_22\n      jumpi\n      0x00\n      dup1\n      revert\n    tag_22:\n      pop\n      tag_23\n      tag_24\n      jump\t// in\n    tag_23:\n      mload(0x40)\n      tag_25\n      swap2\n      swap1\n      tag_26\n      jump\t// in\n    tag_25:\n      mload(0x40)\n      dup1\n      swap2\n      sub\n      swap1\n      return\n        /* \"contracts/FundMe.sol\":563:784  function fund() public payable {... */\n    tag_6:\n      tag_27\n      tag_28\n      jump\t// in\n    tag_27:\n      stop\n        /* \"contracts/FundMe.sol\":314:338  address[] public funders */\n    tag_7:\n      callvalue\n      dup1\n      iszero\n      tag_29\n      jumpi\n      0x00\n      dup1\n      revert\n    tag_29:\n      pop\n      tag_30\n      0x04\n      dup1\n      calldatasize\n      sub\n      dup2\n      add\n      swap1\n      tag_31\n      swap2\n      swap1\n      tag_32\n      jump\t// in\n    tag_31:\n      tag_33\n      jump\t// in\n    tag_30:\n      mload(0x40)\n      tag_34\n      swap2\n      swap1\n      tag_26\n      jump\t// in\n    tag_34:\n      mload(0x40)\n      dup1\n      swap2\n      sub\n      swap1\n      return\n        /* \"contracts/FundMe.sol\":792:1310  function withdraw() public onlyOwner {... */\n    tag_10:\n        /* \"contracts/FundMe.sol\":1374:1379  owner */\n      0x02\n      0x00\n      swap1\n      sload\n      swap1\n      0x0100\n      exp\n      swap1\n      div\n      0xffffffffffffffffffffffffffffffffffffffff\n      and\n        /* \"contracts/FundMe.sol\":1360:1379  msg.sender == owner */\n      0xffffffffffffffffffffffffffffffffffffffff\n      and\n        /* \"contracts/FundMe.sol\":1360:1370  msg.sender */\n      caller\n        /* \"contracts/FundMe.sol\":1360:1379  msg.sender == owner */\n      0xffffffffffffffffffffffffffffffffffffffff\n      and\n      eq\n        /* \"contracts/FundMe.sol\":1352:1423  require(msg.sender == owner, \"You are not the owner of this contract!\") */\n      tag_36\n      jumpi\n      mload(0x40)\n      0x08c379a000000000000000000000000000000000000000000000000000000000\n      dup2\n      mstore\n      0x04\n      add\n      tag_37\n      swap1\n      tag_38\n      jump\t// in\n    tag_37:\n      mload(0x40)\n      dup1\n      swap2\n      sub\n      swap1\n      revert\n    tag_36:\n        /* \"contracts/FundMe.sol\":901:920  uint256 funderIndex */\n      0x00\n        /* \"contracts/FundMe.sol\":897:1080  for(uint256 funderIndex = 0; funderIndex < funders.length; funderIndex++){... */\n    tag_40:\n        /* \"contracts/FundMe.sol\":940:947  funders */\n      0x00\n        /* \"contracts/FundMe.sol\":940:954  funders.length */\n      dup1\n      sload\n      swap1\n      pop\n        /* \"contracts/FundMe.sol\":926:937  funderIndex */\n      dup2\n        /* \"contracts/FundMe.sol\":926:954  funderIndex < funders.length */\n      lt\n        /* \"contracts/FundMe.sol\":897:1080  for(uint256 funderIndex = 0; funderIndex < funders.length; funderIndex++){... */\n      iszero\n      tag_41\n      jumpi\n        /* \"contracts/FundMe.sol\":984:998  address funder */\n      0x00\n        /* \"contracts/FundMe.sol\":1001:1008  funders */\n      dup1\n        /* \"contracts/FundMe.sol\":1009:1020  funderIndex */\n      dup3\n        /* \"contracts/FundMe.sol\":1001:1021  funders[funderIndex] */\n      dup2\n      sload\n      dup2\n      lt\n      tag_43\n      jumpi\n      tag_44\n      tag_45\n      jump\t// in\n    tag_44:\n    tag_43:\n      swap1\n      0x00\n      mstore\n      keccak256(0x00, 0x20)\n      add\n      0x00\n      swap1\n      sload\n      swap1\n      0x0100\n      exp\n      swap1\n      div\n      0xffffffffffffffffffffffffffffffffffffffff\n      and\n        /* \"contracts/FundMe.sol\":984:1021  address funder = funders[funderIndex] */\n      swap1\n      pop\n        /* \"contracts/FundMe.sol\":1067:1068  0 */\n      0x00\n        /* \"contracts/FundMe.sol\":1035:1056  addressToAmountFunded */\n      0x01\n        /* \"contracts/FundMe.sol\":1035:1064  addressToAmountFunded[funder] */\n      0x00\n        /* \"contracts/FundMe.sol\":1057:1063  funder */\n      dup4\n        /* \"contracts/FundMe.sol\":1035:1064  addressToAmountFunded[funder] */\n      0xffffffffffffffffffffffffffffffffffffffff\n      and\n      0xffffffffffffffffffffffffffffffffffffffff\n      and\n      dup2\n      mstore\n      0x20\n      add\n      swap1\n      dup2\n      mstore\n      0x20\n      add\n      0x00\n      keccak256\n        /* \"contracts/FundMe.sol\":1035:1068  addressToAmountFunded[funder] = 0 */\n      dup2\n      swap1\n      sstore\n      pop\n        /* \"contracts/FundMe.sol\":970:1080  {... */\n      pop\n        /* \"contracts/FundMe.sol\":956:969  funderIndex++ */\n      dup1\n      dup1\n      0x01\n      add\n      swap2\n      pop\n      pop\n        /* \"contracts/FundMe.sol\":897:1080  for(uint256 funderIndex = 0; funderIndex < funders.length; funderIndex++){... */\n      jump(tag_40)\n    tag_41:\n      pop\n        /* \"contracts/FundMe.sol\":1114:1115  0 */\n      0x00\n        /* \"contracts/FundMe.sol\":1100:1116  new address[](0) */\n      0xffffffffffffffff\n      dup2\n      gt\n      iszero\n      tag_47\n      jumpi\n      tag_48\n      tag_49\n      jump\t// in\n    tag_48:\n    tag_47:\n      mload(0x40)\n      swap1\n      dup1\n      dup3\n      mstore\n      dup1\n      0x20\n      mul\n      0x20\n      add\n      dup3\n      add\n      0x40\n      mstore\n      dup1\n      iszero\n      tag_50\n      jumpi\n      dup2\n      0x20\n      add\n      0x20\n      dup3\n      mul\n      dup1\n      calldatasize\n      dup4\n      calldatacopy\n      dup1\n      dup3\n      add\n      swap2\n      pop\n      pop\n      swap1\n      pop\n    tag_50:\n      pop\n        /* \"contracts/FundMe.sol\":1090:1097  funders */\n      0x00\n        /* \"contracts/FundMe.sol\":1090:1116  funders = new address[](0) */\n      swap1\n      dup1\n      mload\n      swap1\n      0x20\n      add\n      swap1\n      tag_51\n      swap3\n      swap2\n      swap1\n      tag_52\n      jump\t// in\n    tag_51:\n      pop\n        /* \"contracts/FundMe.sol\":1177:1193  bool callSuccess */\n      0x00\n        /* \"contracts/FundMe.sol\":1207:1217  msg.sender */\n      caller\n        /* \"contracts/FundMe.sol\":1199:1223  payable(msg.sender).call */\n      0xffffffffffffffffffffffffffffffffffffffff\n      and\n        /* \"contracts/FundMe.sol\":1231:1252  address(this).balance */\n      selfbalance\n        /* \"contracts/FundMe.sol\":1199:1257  payable(msg.sender).call{value: address(this).balance}(\"\") */\n      mload(0x40)\n      tag_53\n      swap1\n      tag_54\n      jump\t// in\n    tag_53:\n      0x00\n      mload(0x40)\n      dup1\n      dup4\n      sub\n      dup2\n      dup6\n      dup8\n      gas\n      call\n      swap3\n      pop\n      pop\n      pop\n      returndatasize\n      dup1\n      0x00\n      dup2\n      eq\n      tag_57\n      jumpi\n      mload(0x40)\n      swap2\n      pop\n      and(add(returndatasize, 0x3f), not(0x1f))\n      dup3\n      add\n      0x40\n      mstore\n      returndatasize\n      dup3\n      mstore\n      returndatasize\n      0x00\n      0x20\n      dup5\n      add\n      returndatacopy\n      jump(tag_56)\n    tag_57:\n      0x60\n      swap2\n      pop\n    tag_56:\n      pop\n        /* \"contracts/FundMe.sol\":1176:1257  (bool callSuccess, ) = payable(msg.sender).call{value: address(this).balance}(\"\") */\n      pop\n      swap1\n      pop\n        /* \"contracts/FundMe.sol\":1272:1283  callSuccess */\n      dup1\n        /* \"contracts/FundMe.sol\":1264:1299  require(callSuccess, \"Call failed\") */\n      tag_58\n      jumpi\n      mload(0x40)\n      0x08c379a000000000000000000000000000000000000000000000000000000000\n      dup2\n      mstore\n      0x04\n      add\n      tag_59\n      swap1\n      tag_60\n      jump\t// in\n    tag_59:\n      mload(0x40)\n      dup1\n      swap2\n      sub\n      swap1\n      revert\n    tag_58:\n        /* \"contracts/FundMe.sol\":829:1310  {... */\n      pop\n        /* \"contracts/FundMe.sol\":792:1310  function withdraw() public onlyOwner {... */\n      jump\t// out\n        /* \"contracts/FundMe.sol\":345:421  mapping(address funder => uint256 amountFunded) public addressToAmountFunded */\n    tag_15:\n      mstore(0x20, 0x01)\n      dup1\n      0x00\n      mstore\n      keccak256(0x00, 0x40)\n      0x00\n      swap2\n      pop\n      swap1\n      pop\n      sload\n      dup2\n      jump\t// out\n        /* \"contracts/FundMe.sol\":263:305  uint256 public constant MINIMUM_USD = 5e18 */\n    tag_20:\n        /* \"contracts/FundMe.sol\":301:305  5e18 */\n      0x4563918244f40000\n        /* \"contracts/FundMe.sol\":263:305  uint256 public constant MINIMUM_USD = 5e18 */\n      dup2\n      jump\t// out\n        /* \"contracts/FundMe.sol\":430:450  address public owner */\n    tag_24:\n      0x02\n      0x00\n      swap1\n      sload\n      swap1\n      0x0100\n      exp\n      swap1\n      div\n      0xffffffffffffffffffffffffffffffffffffffff\n      and\n      dup2\n      jump\t// out\n        /* \"contracts/FundMe.sol\":563:784  function fund() public payable {... */\n    tag_28:\n        /* \"contracts/FundMe.sol\":301:305  5e18 */\n      0x4563918244f40000\n        /* \"contracts/FundMe.sol\":613:642  msg.value.getConversionRate() */\n      tag_62\n        /* \"contracts/FundMe.sol\":613:622  msg.value */\n      callvalue\n        /* \"contracts/FundMe.sol\":613:640  msg.value.getConversionRate */\n      tag_63\n        /* \"contracts/FundMe.sol\":613:642  msg.value.getConversionRate() */\n      jump\t// in\n    tag_62:\n        /* \"contracts/FundMe.sol\":613:657  msg.value.getConversionRate() >= MINIMUM_USD */\n      lt\n      iszero\n        /* \"contracts/FundMe.sol\":605:684  require(msg.value.getConversionRate() >= MINIMUM_USD , 'Didnt send enough Eth') */\n      tag_64\n      jumpi\n      mload(0x40)\n      0x08c379a000000000000000000000000000000000000000000000000000000000\n      dup2\n      mstore\n      0x04\n      add\n      tag_65\n      swap1\n      tag_66\n      jump\t// in\n    tag_65:\n      mload(0x40)\n      dup1\n      swap2\n      sub\n      swap1\n      revert\n    tag_64:\n        /* \"contracts/FundMe.sol\":695:702  funders */\n      0x00\n        /* \"contracts/FundMe.sol\":708:718  msg.sender */\n      caller\n        /* \"contracts/FundMe.sol\":695:719  funders.push(msg.sender) */\n      swap1\n      dup1\n      0x01\n      dup2\n      sload\n      add\n      dup1\n      dup3\n      sstore\n      dup1\n      swap2\n      pop\n      pop\n      0x01\n      swap1\n      sub\n      swap1\n      0x00\n      mstore\n      keccak256(0x00, 0x20)\n      add\n      0x00\n      swap1\n      swap2\n      swap1\n      swap2\n      swap1\n      swap2\n      0x0100\n      exp\n      dup2\n      sload\n      dup2\n      0xffffffffffffffffffffffffffffffffffffffff\n      mul\n      not\n      and\n      swap1\n      dup4\n      0xffffffffffffffffffffffffffffffffffffffff\n      and\n      mul\n      or\n      swap1\n      sstore\n      pop\n        /* \"contracts/FundMe.sol\":767:776  msg.value */\n      callvalue\n        /* \"contracts/FundMe.sol\":730:751  addressToAmountFunded */\n      0x01\n        /* \"contracts/FundMe.sol\":730:763  addressToAmountFunded[msg.sender] */\n      0x00\n        /* \"contracts/FundMe.sol\":752:762  msg.sender */\n      caller\n        /* \"contracts/FundMe.sol\":730:763  addressToAmountFunded[msg.sender] */\n      0xffffffffffffffffffffffffffffffffffffffff\n      and\n      0xffffffffffffffffffffffffffffffffffffffff\n      and\n      dup2\n      mstore\n      0x20\n      add\n      swap1\n      dup2\n      mstore\n      0x20\n      add\n      0x00\n      keccak256\n      0x00\n        /* \"contracts/FundMe.sol\":730:776  addressToAmountFunded[msg.sender] += msg.value */\n      dup3\n      dup3\n      sload\n      tag_68\n      swap2\n      swap1\n      tag_69\n      jump\t// in\n    tag_68:\n      swap3\n      pop\n      pop\n      dup2\n      swap1\n      sstore\n      pop\n        /* \"contracts/FundMe.sol\":563:784  function fund() public payable {... */\n      jump\t// out\n        /* \"contracts/FundMe.sol\":314:338  address[] public funders */\n    tag_33:\n      0x00\n      dup2\n      dup2\n      sload\n      dup2\n      lt\n      tag_70\n      jumpi\n      0x00\n      dup1\n      revert\n    tag_70:\n      swap1\n      0x00\n      mstore\n      keccak256(0x00, 0x20)\n      add\n      0x00\n      swap2\n      pop\n      sload\n      swap1\n      0x0100\n      exp\n      swap1\n      div\n      0xffffffffffffffffffffffffffffffffffffffff\n      and\n      dup2\n      jump\t// out\n        /* \"contracts/PriceConverter.sol\":553:776  function getConversionRate(uint256 ethAmount) internal view returns (uint256) {... */\n    tag_63:\n        /* \"contracts/PriceConverter.sol\":622:629  uint256 */\n      0x00\n        /* \"contracts/PriceConverter.sol\":642:658  uint256 ethPrice */\n      dup1\n        /* \"contracts/PriceConverter.sol\":661:671  getPrice() */\n      tag_73\n        /* \"contracts/PriceConverter.sol\":661:669  getPrice */\n      tag_74\n        /* \"contracts/PriceConverter.sol\":661:671  getPrice() */\n      jump\t// in\n    tag_73:\n        /* \"contracts/PriceConverter.sol\":642:671  uint256 ethPrice = getPrice() */\n      swap1\n      pop\n        /* \"contracts/PriceConverter.sol\":682:704  uint256 ethAmountInUsd */\n      0x00\n        /* \"contracts/PriceConverter.sol\":732:736  1e18 */\n      0x0de0b6b3a7640000\n        /* \"contracts/PriceConverter.sol\":720:728  ethPrice */\n      dup3\n        /* \"contracts/PriceConverter.sol\":708:717  ethAmount */\n      dup6\n        /* \"contracts/PriceConverter.sol\":708:728  ethAmount * ethPrice */\n      tag_75\n      swap2\n      swap1\n      tag_76\n      jump\t// in\n    tag_75:\n        /* \"contracts/PriceConverter.sol\":707:736  (ethAmount * ethPrice) / 1e18 */\n      tag_77\n      swap2\n      swap1\n      tag_78\n      jump\t// in\n    tag_77:\n        /* \"contracts/PriceConverter.sol\":682:736  uint256 ethAmountInUsd = (ethAmount * ethPrice) / 1e18 */\n      swap1\n      pop\n        /* \"contracts/PriceConverter.sol\":754:768  ethAmountInUsd */\n      dup1\n        /* \"contracts/PriceConverter.sol\":747:768  return ethAmountInUsd */\n      swap3\n      pop\n      pop\n      pop\n        /* \"contracts/PriceConverter.sol\":553:776  function getConversionRate(uint256 ethAmount) internal view returns (uint256) {... */\n      swap2\n      swap1\n      pop\n      jump\t// out\n        /* \"contracts/PriceConverter.sol\":209:545  function getPrice() internal view returns (uint256){... */\n    tag_74:\n        /* \"contracts/PriceConverter.sol\":252:259  uint256 */\n      0x00\n        /* \"contracts/PriceConverter.sol\":333:363  AggregatorV3Interface dataFeed */\n      dup1\n        /* \"contracts/PriceConverter.sol\":388:430  0x694AA1769357215DE4FAC081bf1f309aDC325306 */\n      0x694aa1769357215de4fac081bf1f309adc325306\n        /* \"contracts/PriceConverter.sol\":333:431  AggregatorV3Interface dataFeed = AggregatorV3Interface(0x694AA1769357215DE4FAC081bf1f309aDC325306) */\n      swap1\n      pop\n        /* \"contracts/PriceConverter.sol\":445:458  int256 answer */\n      0x00\n        /* \"contracts/PriceConverter.sol\":466:474  dataFeed */\n      dup2\n        /* \"contracts/PriceConverter.sol\":466:490  dataFeed.latestRoundData */\n      0xffffffffffffffffffffffffffffffffffffffff\n      and\n      0xfeaf968c\n        /* \"contracts/PriceConverter.sol\":466:492  dataFeed.latestRoundData() */\n      mload(0x40)\n      dup2\n      0xffffffff\n      and\n      0xe0\n      shl\n      dup2\n      mstore\n      0x04\n      add\n      0xa0\n      mload(0x40)\n      dup1\n      dup4\n      sub\n      dup2\n      dup7\n      gas\n      staticcall\n      iszero\n      dup1\n      iszero\n      tag_81\n      jumpi\n      returndatasize\n      0x00\n      dup1\n      returndatacopy\n      revert(0x00, returndatasize)\n    tag_81:\n      pop\n      pop\n      pop\n      pop\n      mload(0x40)\n      returndatasize\n      not(0x1f)\n      0x1f\n      dup3\n      add\n      and\n      dup3\n      add\n      dup1\n      0x40\n      mstore\n      pop\n      dup2\n      add\n      swap1\n      tag_82\n      swap2\n      swap1\n      tag_83\n      jump\t// in\n    tag_82:\n        /* \"contracts/PriceConverter.sol\":442:492  (, int256 answer ,,,) = dataFeed.latestRoundData() */\n      pop\n      pop\n      pop\n      swap2\n      pop\n      pop\n        /* \"contracts/PriceConverter.sol\":532:536  1e10 */\n      0x02540be400\n        /* \"contracts/PriceConverter.sol\":523:529  answer */\n      dup2\n        /* \"contracts/PriceConverter.sol\":523:536  answer * 1e10 */\n      tag_84\n      swap2\n      swap1\n      tag_85\n      jump\t// in\n    tag_84:\n        /* \"contracts/PriceConverter.sol\":507:537  return uint256 (answer * 1e10) */\n      swap3\n      pop\n      pop\n      pop\n        /* \"contracts/PriceConverter.sol\":209:545  function getPrice() internal view returns (uint256){... */\n      swap1\n      jump\t// out\n    tag_52:\n      dup3\n      dup1\n      sload\n      dup3\n      dup3\n      sstore\n      swap1\n      0x00\n      mstore\n      keccak256(0x00, 0x20)\n      swap1\n      dup2\n      add\n      swap3\n      dup3\n      iszero\n      tag_86\n      jumpi\n      swap2\n      0x20\n      mul\n      dup3\n      add\n    tag_87:\n      dup3\n      dup2\n      gt\n      iszero\n      tag_88\n      jumpi\n      dup3\n      mload\n      dup3\n      exp(0x0100, 0x00)\n      dup2\n      sload\n      dup2\n      0xffffffffffffffffffffffffffffffffffffffff\n      mul\n      not\n      and\n      swap1\n      dup4\n      0xffffffffffffffffffffffffffffffffffffffff\n      and\n      mul\n      or\n      swap1\n      sstore\n      pop\n      swap2\n      0x20\n      add\n      swap2\n      swap1\n      0x01\n      add\n      swap1\n      jump(tag_87)\n    tag_88:\n    tag_86:\n      pop\n      swap1\n      pop\n      tag_89\n      swap2\n      swap1\n      tag_90\n      jump\t// in\n    tag_89:\n      pop\n      swap1\n      jump\t// out\n    tag_90:\n    tag_91:\n      dup1\n      dup3\n      gt\n      iszero\n      tag_92\n      jumpi\n      0x00\n      dup2\n      0x00\n      swap1\n      sstore\n      pop\n      0x01\n      add\n      jump(tag_91)\n    tag_92:\n      pop\n      swap1\n      jump\t// out\n        /* \"#utility.yul\":88:205   */\n    tag_94:\n        /* \"#utility.yul\":197:198   */\n      0x00\n        /* \"#utility.yul\":194:195   */\n      dup1\n        /* \"#utility.yul\":187:199   */\n      revert\n        /* \"#utility.yul\":334:460   */\n    tag_96:\n        /* \"#utility.yul\":371:378   */\n      0x00\n        /* \"#utility.yul\":411:453   */\n      0xffffffffffffffffffffffffffffffffffffffff\n        /* \"#utility.yul\":404:409   */\n      dup3\n        /* \"#utility.yul\":400:454   */\n      and\n        /* \"#utility.yul\":389:454   */\n      swap1\n      pop\n        /* \"#utility.yul\":334:460   */\n      swap2\n      swap1\n      pop\n      jump\t// out\n        /* \"#utility.yul\":466:562   */\n    tag_97:\n        /* \"#utility.yul\":503:510   */\n      0x00\n        /* \"#utility.yul\":532:556   */\n      tag_130\n        /* \"#utility.yul\":550:555   */\n      dup3\n        /* \"#utility.yul\":532:556   */\n      tag_96\n      jump\t// in\n    tag_130:\n        /* \"#utility.yul\":521:556   */\n      swap1\n      pop\n        /* \"#utility.yul\":466:562   */\n      swap2\n      swap1\n      pop\n      jump\t// out\n        /* \"#utility.yul\":568:690   */\n    tag_98:\n        /* \"#utility.yul\":641:665   */\n      tag_132\n        /* \"#utility.yul\":659:664   */\n      dup2\n        /* \"#utility.yul\":641:665   */\n      tag_97\n      jump\t// in\n    tag_132:\n        /* \"#utility.yul\":634:639   */\n      dup2\n        /* \"#utility.yul\":631:666   */\n      eq\n        /* \"#utility.yul\":621:684   */\n      tag_133\n      jumpi\n        /* \"#utility.yul\":680:681   */\n      0x00\n        /* \"#utility.yul\":677:678   */\n      dup1\n        /* \"#utility.yul\":670:682   */\n      revert\n        /* \"#utility.yul\":621:684   */\n    tag_133:\n        /* \"#utility.yul\":568:690   */\n      pop\n      jump\t// out\n        /* \"#utility.yul\":696:835   */\n    tag_99:\n        /* \"#utility.yul\":742:747   */\n      0x00\n        /* \"#utility.yul\":780:786   */\n      dup2\n        /* \"#utility.yul\":767:787   */\n      calldataload\n        /* \"#utility.yul\":758:787   */\n      swap1\n      pop\n        /* \"#utility.yul\":796:829   */\n      tag_135\n        /* \"#utility.yul\":823:828   */\n      dup2\n        /* \"#utility.yul\":796:829   */\n      tag_98\n      jump\t// in\n    tag_135:\n        /* \"#utility.yul\":696:835   */\n      swap3\n      swap2\n      pop\n      pop\n      jump\t// out\n        /* \"#utility.yul\":841:1170   */\n    tag_14:\n        /* \"#utility.yul\":900:906   */\n      0x00\n        /* \"#utility.yul\":949:951   */\n      0x20\n        /* \"#utility.yul\":937:946   */\n      dup3\n        /* \"#utility.yul\":928:935   */\n      dup5\n        /* \"#utility.yul\":924:947   */\n      sub\n        /* \"#utility.yul\":920:952   */\n      slt\n        /* \"#utility.yul\":917:1036   */\n      iszero\n      tag_137\n      jumpi\n        /* \"#utility.yul\":955:1034   */\n      tag_138\n      tag_94\n      jump\t// in\n    tag_138:\n        /* \"#utility.yul\":917:1036   */\n    tag_137:\n        /* \"#utility.yul\":1075:1076   */\n      0x00\n        /* \"#utility.yul\":1100:1153   */\n      tag_139\n        /* \"#utility.yul\":1145:1152   */\n      dup5\n        /* \"#utility.yul\":1136:1142   */\n      dup3\n        /* \"#utility.yul\":1125:1134   */\n      dup6\n        /* \"#utility.yul\":1121:1143   */\n      add\n        /* \"#utility.yul\":1100:1153   */\n      tag_99\n      jump\t// in\n    tag_139:\n        /* \"#utility.yul\":1090:1153   */\n      swap2\n      pop\n        /* \"#utility.yul\":1046:1163   */\n      pop\n        /* \"#utility.yul\":841:1170   */\n      swap3\n      swap2\n      pop\n      pop\n      jump\t// out\n        /* \"#utility.yul\":1176:1253   */\n    tag_100:\n        /* \"#utility.yul\":1213:1220   */\n      0x00\n        /* \"#utility.yul\":1242:1247   */\n      dup2\n        /* \"#utility.yul\":1231:1247   */\n      swap1\n      pop\n        /* \"#utility.yul\":1176:1253   */\n      swap2\n      swap1\n      pop\n      jump\t// out\n        /* \"#utility.yul\":1259:1377   */\n    tag_101:\n        /* \"#utility.yul\":1346:1370   */\n      tag_142\n        /* \"#utility.yul\":1364:1369   */\n      dup2\n        /* \"#utility.yul\":1346:1370   */\n      tag_100\n      jump\t// in\n    tag_142:\n        /* \"#utility.yul\":1341:1344   */\n      dup3\n        /* \"#utility.yul\":1334:1371   */\n      mstore\n        /* \"#utility.yul\":1259:1377   */\n      pop\n      pop\n      jump\t// out\n        /* \"#utility.yul\":1383:1605   */\n    tag_17:\n        /* \"#utility.yul\":1476:1480   */\n      0x00\n        /* \"#utility.yul\":1514:1516   */\n      0x20\n        /* \"#utility.yul\":1503:1512   */\n      dup3\n        /* \"#utility.yul\":1499:1517   */\n      add\n        /* \"#utility.yul\":1491:1517   */\n      swap1\n      pop\n        /* \"#utility.yul\":1527:1598   */\n      tag_144\n        /* \"#utility.yul\":1595:1596   */\n      0x00\n        /* \"#utility.yul\":1584:1593   */\n      dup4\n        /* \"#utility.yul\":1580:1597   */\n      add\n        /* \"#utility.yul\":1571:1577   */\n      dup5\n        /* \"#utility.yul\":1527:1598   */\n      tag_101\n      jump\t// in\n    tag_144:\n        /* \"#utility.yul\":1383:1605   */\n      swap3\n      swap2\n      pop\n      pop\n      jump\t// out\n        /* \"#utility.yul\":1611:1729   */\n    tag_102:\n        /* \"#utility.yul\":1698:1722   */\n      tag_146\n        /* \"#utility.yul\":1716:1721   */\n      dup2\n        /* \"#utility.yul\":1698:1722   */\n      tag_97\n      jump\t// in\n    tag_146:\n        /* \"#utility.yul\":1693:1696   */\n      dup3\n        /* \"#utility.yul\":1686:1723   */\n      mstore\n        /* \"#utility.yul\":1611:1729   */\n      pop\n      pop\n      jump\t// out\n        /* \"#utility.yul\":1735:1957   */\n    tag_26:\n        /* \"#utility.yul\":1828:1832   */\n      0x00\n        /* \"#utility.yul\":1866:1868   */\n      0x20\n        /* \"#utility.yul\":1855:1864   */\n      dup3\n        /* \"#utility.yul\":1851:1869   */\n      add\n        /* \"#utility.yul\":1843:1869   */\n      swap1\n      pop\n        /* \"#utility.yul\":1879:1950   */\n      tag_148\n        /* \"#utility.yul\":1947:1948   */\n      0x00\n        /* \"#utility.yul\":1936:1945   */\n      dup4\n        /* \"#utility.yul\":1932:1949   */\n      add\n        /* \"#utility.yul\":1923:1929   */\n      dup5\n        /* \"#utility.yul\":1879:1950   */\n      tag_102\n      jump\t// in\n    tag_148:\n        /* \"#utility.yul\":1735:1957   */\n      swap3\n      swap2\n      pop\n      pop\n      jump\t// out\n        /* \"#utility.yul\":1963:2085   */\n    tag_103:\n        /* \"#utility.yul\":2036:2060   */\n      tag_150\n        /* \"#utility.yul\":2054:2059   */\n      dup2\n        /* \"#utility.yul\":2036:2060   */\n      tag_100\n      jump\t// in\n    tag_150:\n        /* \"#utility.yul\":2029:2034   */\n      dup2\n        /* \"#utility.yul\":2026:2061   */\n      eq\n        /* \"#utility.yul\":2016:2079   */\n      tag_151\n      jumpi\n        /* \"#utility.yul\":2075:2076   */\n      0x00\n        /* \"#utility.yul\":2072:2073   */\n      dup1\n        /* \"#utility.yul\":2065:2077   */\n      revert\n        /* \"#utility.yul\":2016:2079   */\n    tag_151:\n        /* \"#utility.yul\":1963:2085   */\n      pop\n      jump\t// out\n        /* \"#utility.yul\":2091:2230   */\n    tag_104:\n        /* \"#utility.yul\":2137:2142   */\n      0x00\n        /* \"#utility.yul\":2175:2181   */\n      dup2\n        /* \"#utility.yul\":2162:2182   */\n      calldataload\n        /* \"#utility.yul\":2153:2182   */\n      swap1\n      pop\n        /* \"#utility.yul\":2191:2224   */\n      tag_153\n        /* \"#utility.yul\":2218:2223   */\n      dup2\n        /* \"#utility.yul\":2191:2224   */\n      tag_103\n      jump\t// in\n    tag_153:\n        /* \"#utility.yul\":2091:2230   */\n      swap3\n      swap2\n      pop\n      pop\n      jump\t// out\n        /* \"#utility.yul\":2236:2565   */\n    tag_32:\n        /* \"#utility.yul\":2295:2301   */\n      0x00\n        /* \"#utility.yul\":2344:2346   */\n      0x20\n        /* \"#utility.yul\":2332:2341   */\n      dup3\n        /* \"#utility.yul\":2323:2330   */\n      dup5\n        /* \"#utility.yul\":2319:2342   */\n      sub\n        /* \"#utility.yul\":2315:2347   */\n      slt\n        /* \"#utility.yul\":2312:2431   */\n      iszero\n      tag_155\n      jumpi\n        /* \"#utility.yul\":2350:2429   */\n      tag_156\n      tag_94\n      jump\t// in\n    tag_156:\n        /* \"#utility.yul\":2312:2431   */\n    tag_155:\n        /* \"#utility.yul\":2470:2471   */\n      0x00\n        /* \"#utility.yul\":2495:2548   */\n      tag_157\n        /* \"#utility.yul\":2540:2547   */\n      dup5\n        /* \"#utility.yul\":2531:2537   */\n      dup3\n        /* \"#utility.yul\":2520:2529   */\n      dup6\n        /* \"#utility.yul\":2516:2538   */\n      add\n        /* \"#utility.yul\":2495:2548   */\n      tag_104\n      jump\t// in\n    tag_157:\n        /* \"#utility.yul\":2485:2548   */\n      swap2\n      pop\n        /* \"#utility.yul\":2441:2558   */\n      pop\n        /* \"#utility.yul\":2236:2565   */\n      swap3\n      swap2\n      pop\n      pop\n      jump\t// out\n        /* \"#utility.yul\":2571:2740   */\n    tag_105:\n        /* \"#utility.yul\":2655:2666   */\n      0x00\n        /* \"#utility.yul\":2689:2695   */\n      dup3\n        /* \"#utility.yul\":2684:2687   */\n      dup3\n        /* \"#utility.yul\":2677:2696   */\n      mstore\n        /* \"#utility.yul\":2729:2733   */\n      0x20\n        /* \"#utility.yul\":2724:2727   */\n      dup3\n        /* \"#utility.yul\":2720:2734   */\n      add\n        /* \"#utility.yul\":2705:2734   */\n      swap1\n      pop\n        /* \"#utility.yul\":2571:2740   */\n      swap3\n      swap2\n      pop\n      pop\n      jump\t// out\n        /* \"#utility.yul\":2746:2972   */\n    tag_106:\n        /* \"#utility.yul\":2886:2920   */\n      0x596f7520617265206e6f7420746865206f776e6572206f66207468697320636f\n        /* \"#utility.yul\":2882:2883   */\n      0x00\n        /* \"#utility.yul\":2874:2880   */\n      dup3\n        /* \"#utility.yul\":2870:2884   */\n      add\n        /* \"#utility.yul\":2863:2921   */\n      mstore\n        /* \"#utility.yul\":2955:2964   */\n      0x6e74726163742100000000000000000000000000000000000000000000000000\n        /* \"#utility.yul\":2950:2952   */\n      0x20\n        /* \"#utility.yul\":2942:2948   */\n      dup3\n        /* \"#utility.yul\":2938:2953   */\n      add\n        /* \"#utility.yul\":2931:2965   */\n      mstore\n        /* \"#utility.yul\":2746:2972   */\n      pop\n      jump\t// out\n        /* \"#utility.yul\":2978:3344   */\n    tag_107:\n        /* \"#utility.yul\":3120:3123   */\n      0x00\n        /* \"#utility.yul\":3141:3208   */\n      tag_161\n        /* \"#utility.yul\":3205:3207   */\n      0x27\n        /* \"#utility.yul\":3200:3203   */\n      dup4\n        /* \"#utility.yul\":3141:3208   */\n      tag_105\n      jump\t// in\n    tag_161:\n        /* \"#utility.yul\":3134:3208   */\n      swap2\n      pop\n        /* \"#utility.yul\":3217:3310   */\n      tag_162\n        /* \"#utility.yul\":3306:3309   */\n      dup3\n        /* \"#utility.yul\":3217:3310   */\n      tag_106\n      jump\t// in\n    tag_162:\n        /* \"#utility.yul\":3335:3337   */\n      0x40\n        /* \"#utility.yul\":3330:3333   */\n      dup3\n        /* \"#utility.yul\":3326:3338   */\n      add\n        /* \"#utility.yul\":3319:3338   */\n      swap1\n      pop\n        /* \"#utility.yul\":2978:3344   */\n      swap2\n      swap1\n      pop\n      jump\t// out\n        /* \"#utility.yul\":3350:3769   */\n    tag_38:\n        /* \"#utility.yul\":3516:3520   */\n      0x00\n        /* \"#utility.yul\":3554:3556   */\n      0x20\n        /* \"#utility.yul\":3543:3552   */\n      dup3\n        /* \"#utility.yul\":3539:3557   */\n      add\n        /* \"#utility.yul\":3531:3557   */\n      swap1\n      pop\n        /* \"#utility.yul\":3603:3612   */\n      dup2\n        /* \"#utility.yul\":3597:3601   */\n      dup2\n        /* \"#utility.yul\":3593:3613   */\n      sub\n        /* \"#utility.yul\":3589:3590   */\n      0x00\n        /* \"#utility.yul\":3578:3587   */\n      dup4\n        /* \"#utility.yul\":3574:3591   */\n      add\n        /* \"#utility.yul\":3567:3614   */\n      mstore\n        /* \"#utility.yul\":3631:3762   */\n      tag_164\n        /* \"#utility.yul\":3757:3761   */\n      dup2\n        /* \"#utility.yul\":3631:3762   */\n      tag_107\n      jump\t// in\n    tag_164:\n        /* \"#utility.yul\":3623:3762   */\n      swap1\n      pop\n        /* \"#utility.yul\":3350:3769   */\n      swap2\n      swap1\n      pop\n      jump\t// out\n        /* \"#utility.yul\":3775:3955   */\n    tag_45:\n        /* \"#utility.yul\":3823:3900   */\n      0x4e487b7100000000000000000000000000000000000000000000000000000000\n        /* \"#utility.yul\":3820:3821   */\n      0x00\n        /* \"#utility.yul\":3813:3901   */\n      mstore\n        /* \"#utility.yul\":3920:3924   */\n      0x32\n        /* \"#utility.yul\":3917:3918   */\n      0x04\n        /* \"#utility.yul\":3910:3925   */\n      mstore\n        /* \"#utility.yul\":3944:3948   */\n      0x24\n        /* \"#utility.yul\":3941:3942   */\n      0x00\n        /* \"#utility.yul\":3934:3949   */\n      revert\n        /* \"#utility.yul\":3961:4141   */\n    tag_49:\n        /* \"#utility.yul\":4009:4086   */\n      0x4e487b7100000000000000000000000000000000000000000000000000000000\n        /* \"#utility.yul\":4006:4007   */\n      0x00\n        /* \"#utility.yul\":3999:4087   */\n      mstore\n        /* \"#utility.yul\":4106:4110   */\n      0x41\n        /* \"#utility.yul\":4103:4104   */\n      0x04\n        /* \"#utility.yul\":4096:4111   */\n      mstore\n        /* \"#utility.yul\":4130:4134   */\n      0x24\n        /* \"#utility.yul\":4127:4128   */\n      0x00\n        /* \"#utility.yul\":4120:4135   */\n      revert\n        /* \"#utility.yul\":4147:4294   */\n    tag_108:\n        /* \"#utility.yul\":4248:4259   */\n      0x00\n        /* \"#utility.yul\":4285:4288   */\n      dup2\n        /* \"#utility.yul\":4270:4288   */\n      swap1\n      pop\n        /* \"#utility.yul\":4147:4294   */\n      swap3\n      swap2\n      pop\n      pop\n      jump\t// out\n        /* \"#utility.yul\":4300:4414   */\n    tag_109:\n      pop\n      jump\t// out\n        /* \"#utility.yul\":4420:4818   */\n    tag_110:\n        /* \"#utility.yul\":4579:4582   */\n      0x00\n        /* \"#utility.yul\":4600:4683   */\n      tag_170\n        /* \"#utility.yul\":4681:4682   */\n      0x00\n        /* \"#utility.yul\":4676:4679   */\n      dup4\n        /* \"#utility.yul\":4600:4683   */\n      tag_108\n      jump\t// in\n    tag_170:\n        /* \"#utility.yul\":4593:4683   */\n      swap2\n      pop\n        /* \"#utility.yul\":4692:4785   */\n      tag_171\n        /* \"#utility.yul\":4781:4784   */\n      dup3\n        /* \"#utility.yul\":4692:4785   */\n      tag_109\n      jump\t// in\n    tag_171:\n        /* \"#utility.yul\":4810:4811   */\n      0x00\n        /* \"#utility.yul\":4805:4808   */\n      dup3\n        /* \"#utility.yul\":4801:4812   */\n      add\n        /* \"#utility.yul\":4794:4812   */\n      swap1\n      pop\n        /* \"#utility.yul\":4420:4818   */\n      swap2\n      swap1\n      pop\n      jump\t// out\n        /* \"#utility.yul\":4824:5203   */\n    tag_54:\n        /* \"#utility.yul\":5008:5011   */\n      0x00\n        /* \"#utility.yul\":5030:5177   */\n      tag_173\n        /* \"#utility.yul\":5173:5176   */\n      dup3\n        /* \"#utility.yul\":5030:5177   */\n      tag_110\n      jump\t// in\n    tag_173:\n        /* \"#utility.yul\":5023:5177   */\n      swap2\n      pop\n        /* \"#utility.yul\":5194:5197   */\n      dup2\n        /* \"#utility.yul\":5187:5197   */\n      swap1\n      pop\n        /* \"#utility.yul\":4824:5203   */\n      swap2\n      swap1\n      pop\n      jump\t// out\n        /* \"#utility.yul\":5209:5370   */\n    tag_111:\n        /* \"#utility.yul\":5349:5362   */\n      0x43616c6c206661696c6564000000000000000000000000000000000000000000\n        /* \"#utility.yul\":5345:5346   */\n      0x00\n        /* \"#utility.yul\":5337:5343   */\n      dup3\n        /* \"#utility.yul\":5333:5347   */\n      add\n        /* \"#utility.yul\":5326:5363   */\n      mstore\n        /* \"#utility.yul\":5209:5370   */\n      pop\n      jump\t// out\n        /* \"#utility.yul\":5376:5742   */\n    tag_112:\n        /* \"#utility.yul\":5518:5521   */\n      0x00\n        /* \"#utility.yul\":5539:5606   */\n      tag_176\n        /* \"#utility.yul\":5603:5605   */\n      0x0b\n        /* \"#utility.yul\":5598:5601   */\n      dup4\n        /* \"#utility.yul\":5539:5606   */\n      tag_105\n      jump\t// in\n    tag_176:\n        /* \"#utility.yul\":5532:5606   */\n      swap2\n      pop\n        /* \"#utility.yul\":5615:5708   */\n      tag_177\n        /* \"#utility.yul\":5704:5707   */\n      dup3\n        /* \"#utility.yul\":5615:5708   */\n      tag_111\n      jump\t// in\n    tag_177:\n        /* \"#utility.yul\":5733:5735   */\n      0x20\n        /* \"#utility.yul\":5728:5731   */\n      dup3\n        /* \"#utility.yul\":5724:5736   */\n      add\n        /* \"#utility.yul\":5717:5736   */\n      swap1\n      pop\n        /* \"#utility.yul\":5376:5742   */\n      swap2\n      swap1\n      pop\n      jump\t// out\n        /* \"#utility.yul\":5748:6167   */\n    tag_60:\n        /* \"#utility.yul\":5914:5918   */\n      0x00\n        /* \"#utility.yul\":5952:5954   */\n      0x20\n        /* \"#utility.yul\":5941:5950   */\n      dup3\n        /* \"#utility.yul\":5937:5955   */\n      add\n        /* \"#utility.yul\":5929:5955   */\n      swap1\n      pop\n        /* \"#utility.yul\":6001:6010   */\n      dup2\n        /* \"#utility.yul\":5995:5999   */\n      dup2\n        /* \"#utility.yul\":5991:6011   */\n      sub\n        /* \"#utility.yul\":5987:5988   */\n      0x00\n        /* \"#utility.yul\":5976:5985   */\n      dup4\n        /* \"#utility.yul\":5972:5989   */\n      add\n        /* \"#utility.yul\":5965:6012   */\n      mstore\n        /* \"#utility.yul\":6029:6160   */\n      tag_179\n        /* \"#utility.yul\":6155:6159   */\n      dup2\n        /* \"#utility.yul\":6029:6160   */\n      tag_112\n      jump\t// in\n    tag_179:\n        /* \"#utility.yul\":6021:6160   */\n      swap1\n      pop\n        /* \"#utility.yul\":5748:6167   */\n      swap2\n      swap1\n      pop\n      jump\t// out\n        /* \"#utility.yul\":6173:6344   */\n    tag_113:\n        /* \"#utility.yul\":6313:6336   */\n      0x4469646e742073656e6420656e6f756768204574680000000000000000000000\n        /* \"#utility.yul\":6309:6310   */\n      0x00\n        /* \"#utility.yul\":6301:6307   */\n      dup3\n        /* \"#utility.yul\":6297:6311   */\n      add\n        /* \"#utility.yul\":6290:6337   */\n      mstore\n        /* \"#utility.yul\":6173:6344   */\n      pop\n      jump\t// out\n        /* \"#utility.yul\":6350:6716   */\n    tag_114:\n        /* \"#utility.yul\":6492:6495   */\n      0x00\n        /* \"#utility.yul\":6513:6580   */\n      tag_182\n        /* \"#utility.yul\":6577:6579   */\n      0x15\n        /* \"#utility.yul\":6572:6575   */\n      dup4\n        /* \"#utility.yul\":6513:6580   */\n      tag_105\n      jump\t// in\n    tag_182:\n        /* \"#utility.yul\":6506:6580   */\n      swap2\n      pop\n        /* \"#utility.yul\":6589:6682   */\n      tag_183\n        /* \"#utility.yul\":6678:6681   */\n      dup3\n        /* \"#utility.yul\":6589:6682   */\n      tag_113\n      jump\t// in\n    tag_183:\n        /* \"#utility.yul\":6707:6709   */\n      0x20\n        /* \"#utility.yul\":6702:6705   */\n      dup3\n        /* \"#utility.yul\":6698:6710   */\n      add\n        /* \"#utility.yul\":6691:6710   */\n      swap1\n      pop\n        /* \"#utility.yul\":6350:6716   */\n      swap2\n      swap1\n      pop\n      jump\t// out\n        /* \"#utility.yul\":6722:7141   */\n    tag_66:\n        /* \"#utility.yul\":6888:6892   */\n      0x00\n        /* \"#utility.yul\":6926:6928   */\n      0x20\n        /* \"#utility.yul\":6915:6924   */\n      dup3\n        /* \"#utility.yul\":6911:6929   */\n      add\n        /* \"#utility.yul\":6903:6929   */\n      swap1\n      pop\n        /* \"#utility.yul\":6975:6984   */\n      dup2\n        /* \"#utility.yul\":6969:6973   */\n      dup2\n        /* \"#utility.yul\":6965:6985   */\n      sub\n        /* \"#utility.yul\":6961:6962   */\n      0x00\n        /* \"#utility.yul\":6950:6959   */\n      dup4\n        /* \"#utility.yul\":6946:6963   */\n      add\n        /* \"#utility.yul\":6939:6986   */\n      mstore\n        /* \"#utility.yul\":7003:7134   */\n      tag_185\n        /* \"#utility.yul\":7129:7133   */\n      dup2\n        /* \"#utility.yul\":7003:7134   */\n      tag_114\n      jump\t// in\n    tag_185:\n        /* \"#utility.yul\":6995:7134   */\n      swap1\n      pop\n        /* \"#utility.yul\":6722:7141   */\n      swap2\n      swap1\n      pop\n      jump\t// out\n        /* \"#utility.yul\":7147:7327   */\n    tag_115:\n        /* \"#utility.yul\":7195:7272   */\n      0x4e487b7100000000000000000000000000000000000000000000000000000000\n        /* \"#utility.yul\":7192:7193   */\n      0x00\n        /* \"#utility.yul\":7185:7273   */\n      mstore\n        /* \"#utility.yul\":7292:7296   */\n      0x11\n        /* \"#utility.yul\":7289:7290   */\n      0x04\n        /* \"#utility.yul\":7282:7297   */\n      mstore\n        /* \"#utility.yul\":7316:7320   */\n      0x24\n        /* \"#utility.yul\":7313:7314   */\n      0x00\n        /* \"#utility.yul\":7306:7321   */\n      revert\n        /* \"#utility.yul\":7333:7524   */\n    tag_69:\n        /* \"#utility.yul\":7373:7376   */\n      0x00\n        /* \"#utility.yul\":7392:7412   */\n      tag_188\n        /* \"#utility.yul\":7410:7411   */\n      dup3\n        /* \"#utility.yul\":7392:7412   */\n      tag_100\n      jump\t// in\n    tag_188:\n        /* \"#utility.yul\":7387:7412   */\n      swap2\n      pop\n        /* \"#utility.yul\":7426:7446   */\n      tag_189\n        /* \"#utility.yul\":7444:7445   */\n      dup4\n        /* \"#utility.yul\":7426:7446   */\n      tag_100\n      jump\t// in\n    tag_189:\n        /* \"#utility.yul\":7421:7446   */\n      swap3\n      pop\n        /* \"#utility.yul\":7469:7470   */\n      dup3\n        /* \"#utility.yul\":7466:7467   */\n      dup3\n        /* \"#utility.yul\":7462:7471   */\n      add\n        /* \"#utility.yul\":7455:7471   */\n      swap1\n      pop\n        /* \"#utility.yul\":7490:7493   */\n      dup1\n        /* \"#utility.yul\":7487:7488   */\n      dup3\n        /* \"#utility.yul\":7484:7494   */\n      gt\n        /* \"#utility.yul\":7481:7517   */\n      iszero\n      tag_190\n      jumpi\n        /* \"#utility.yul\":7497:7515   */\n      tag_191\n      tag_115\n      jump\t// in\n    tag_191:\n        /* \"#utility.yul\":7481:7517   */\n    tag_190:\n        /* \"#utility.yul\":7333:7524   */\n      swap3\n      swap2\n      pop\n      pop\n      jump\t// out\n        /* \"#utility.yul\":7530:7940   */\n    tag_76:\n        /* \"#utility.yul\":7570:7577   */\n      0x00\n        /* \"#utility.yul\":7593:7613   */\n      tag_193\n        /* \"#utility.yul\":7611:7612   */\n      dup3\n        /* \"#utility.yul\":7593:7613   */\n      tag_100\n      jump\t// in\n    tag_193:\n        /* \"#utility.yul\":7588:7613   */\n      swap2\n      pop\n        /* \"#utility.yul\":7627:7647   */\n      tag_194\n        /* \"#utility.yul\":7645:7646   */\n      dup4\n        /* \"#utility.yul\":7627:7647   */\n      tag_100\n      jump\t// in\n    tag_194:\n        /* \"#utility.yul\":7622:7647   */\n      swap3\n      pop\n        /* \"#utility.yul\":7682:7683   */\n      dup3\n        /* \"#utility.yul\":7679:7680   */\n      dup3\n        /* \"#utility.yul\":7675:7684   */\n      mul\n        /* \"#utility.yul\":7704:7734   */\n      tag_195\n        /* \"#utility.yul\":7722:7733   */\n      dup2\n        /* \"#utility.yul\":7704:7734   */\n      tag_100\n      jump\t// in\n    tag_195:\n        /* \"#utility.yul\":7693:7734   */\n      swap2\n      pop\n        /* \"#utility.yul\":7883:7884   */\n      dup3\n        /* \"#utility.yul\":7874:7881   */\n      dup3\n        /* \"#utility.yul\":7870:7885   */\n      div\n        /* \"#utility.yul\":7867:7868   */\n      dup5\n        /* \"#utility.yul\":7864:7886   */\n      eq\n        /* \"#utility.yul\":7844:7845   */\n      dup4\n        /* \"#utility.yul\":7837:7846   */\n      iszero\n        /* \"#utility.yul\":7817:7900   */\n      or\n        /* \"#utility.yul\":7794:7933   */\n      tag_196\n      jumpi\n        /* \"#utility.yul\":7913:7931   */\n      tag_197\n      tag_115\n      jump\t// in\n    tag_197:\n        /* \"#utility.yul\":7794:7933   */\n    tag_196:\n        /* \"#utility.yul\":7578:7940   */\n      pop\n        /* \"#utility.yul\":7530:7940   */\n      swap3\n      swap2\n      pop\n      pop\n      jump\t// out\n        /* \"#utility.yul\":7946:8126   */\n    tag_116:\n        /* \"#utility.yul\":7994:8071   */\n      0x4e487b7100000000000000000000000000000000000000000000000000000000\n        /* \"#utility.yul\":7991:7992   */\n      0x00\n        /* \"#utility.yul\":7984:8072   */\n      mstore\n        /* \"#utility.yul\":8091:8095   */\n      0x12\n        /* \"#utility.yul\":8088:8089   */\n      0x04\n        /* \"#utility.yul\":8081:8096   */\n      mstore\n        /* \"#utility.yul\":8115:8119   */\n      0x24\n        /* \"#utility.yul\":8112:8113   */\n      0x00\n        /* \"#utility.yul\":8105:8120   */\n      revert\n        /* \"#utility.yul\":8132:8317   */\n    tag_78:\n        /* \"#utility.yul\":8172:8173   */\n      0x00\n        /* \"#utility.yul\":8189:8209   */\n      tag_200\n        /* \"#utility.yul\":8207:8208   */\n      dup3\n        /* \"#utility.yul\":8189:8209   */\n      tag_100\n      jump\t// in\n    tag_200:\n        /* \"#utility.yul\":8184:8209   */\n      swap2\n      pop\n        /* \"#utility.yul\":8223:8243   */\n      tag_201\n        /* \"#utility.yul\":8241:8242   */\n      dup4\n        /* \"#utility.yul\":8223:8243   */\n      tag_100\n      jump\t// in\n    tag_201:\n        /* \"#utility.yul\":8218:8243   */\n      swap3\n      pop\n        /* \"#utility.yul\":8262:8263   */\n      dup3\n        /* \"#utility.yul\":8252:8287   */\n      tag_202\n      jumpi\n        /* \"#utility.yul\":8267:8285   */\n      tag_203\n      tag_116\n      jump\t// in\n    tag_203:\n        /* \"#utility.yul\":8252:8287   */\n    tag_202:\n        /* \"#utility.yul\":8309:8310   */\n      dup3\n        /* \"#utility.yul\":8306:8307   */\n      dup3\n        /* \"#utility.yul\":8302:8311   */\n      div\n        /* \"#utility.yul\":8297:8311   */\n      swap1\n      pop\n        /* \"#utility.yul\":8132:8317   */\n      swap3\n      swap2\n      pop\n      pop\n      jump\t// out\n        /* \"#utility.yul\":8323:8428   */\n    tag_117:\n        /* \"#utility.yul\":8359:8366   */\n      0x00\n        /* \"#utility.yul\":8399:8421   */\n      0xffffffffffffffffffff\n        /* \"#utility.yul\":8392:8397   */\n      dup3\n        /* \"#utility.yul\":8388:8422   */\n      and\n        /* \"#utility.yul\":8377:8422   */\n      swap1\n      pop\n        /* \"#utility.yul\":8323:8428   */\n      swap2\n      swap1\n      pop\n      jump\t// out\n        /* \"#utility.yul\":8434:8554   */\n    tag_118:\n        /* \"#utility.yul\":8506:8529   */\n      tag_206\n        /* \"#utility.yul\":8523:8528   */\n      dup2\n        /* \"#utility.yul\":8506:8529   */\n      tag_117\n      jump\t// in\n    tag_206:\n        /* \"#utility.yul\":8499:8504   */\n      dup2\n        /* \"#utility.yul\":8496:8530   */\n      eq\n        /* \"#utility.yul\":8486:8548   */\n      tag_207\n      jumpi\n        /* \"#utility.yul\":8544:8545   */\n      0x00\n        /* \"#utility.yul\":8541:8542   */\n      dup1\n        /* \"#utility.yul\":8534:8546   */\n      revert\n        /* \"#utility.yul\":8486:8548   */\n    tag_207:\n        /* \"#utility.yul\":8434:8554   */\n      pop\n      jump\t// out\n        /* \"#utility.yul\":8560:8701   */\n    tag_119:\n        /* \"#utility.yul\":8616:8621   */\n      0x00\n        /* \"#utility.yul\":8647:8653   */\n      dup2\n        /* \"#utility.yul\":8641:8654   */\n      mload\n        /* \"#utility.yul\":8632:8654   */\n      swap1\n      pop\n        /* \"#utility.yul\":8663:8695   */\n      tag_209\n        /* \"#utility.yul\":8689:8694   */\n      dup2\n        /* \"#utility.yul\":8663:8695   */\n      tag_118\n      jump\t// in\n    tag_209:\n        /* \"#utility.yul\":8560:8701   */\n      swap3\n      swap2\n      pop\n      pop\n      jump\t// out\n        /* \"#utility.yul\":8707:8783   */\n    tag_120:\n        /* \"#utility.yul\":8743:8750   */\n      0x00\n        /* \"#utility.yul\":8772:8777   */\n      dup2\n        /* \"#utility.yul\":8761:8777   */\n      swap1\n      pop\n        /* \"#utility.yul\":8707:8783   */\n      swap2\n      swap1\n      pop\n      jump\t// out\n        /* \"#utility.yul\":8789:8909   */\n    tag_121:\n        /* \"#utility.yul\":8861:8884   */\n      tag_212\n        /* \"#utility.yul\":8878:8883   */\n      dup2\n        /* \"#utility.yul\":8861:8884   */\n      tag_120\n      jump\t// in\n    tag_212:\n        /* \"#utility.yul\":8854:8859   */\n      dup2\n        /* \"#utility.yul\":8851:8885   */\n      eq\n        /* \"#utility.yul\":8841:8903   */\n      tag_213\n      jumpi\n        /* \"#utility.yul\":8899:8900   */\n      0x00\n        /* \"#utility.yul\":8896:8897   */\n      dup1\n        /* \"#utility.yul\":8889:8901   */\n      revert\n        /* \"#utility.yul\":8841:8903   */\n    tag_213:\n        /* \"#utility.yul\":8789:8909   */\n      pop\n      jump\t// out\n        /* \"#utility.yul\":8915:9056   */\n    tag_122:\n        /* \"#utility.yul\":8971:8976   */\n      0x00\n        /* \"#utility.yul\":9002:9008   */\n      dup2\n        /* \"#utility.yul\":8996:9009   */\n      mload\n        /* \"#utility.yul\":8987:9009   */\n      swap1\n      pop\n        /* \"#utility.yul\":9018:9050   */\n      tag_215\n        /* \"#utility.yul\":9044:9049   */\n      dup2\n        /* \"#utility.yul\":9018:9050   */\n      tag_121\n      jump\t// in\n    tag_215:\n        /* \"#utility.yul\":8915:9056   */\n      swap3\n      swap2\n      pop\n      pop\n      jump\t// out\n        /* \"#utility.yul\":9062:9205   */\n    tag_123:\n        /* \"#utility.yul\":9119:9124   */\n      0x00\n        /* \"#utility.yul\":9150:9156   */\n      dup2\n        /* \"#utility.yul\":9144:9157   */\n      mload\n        /* \"#utility.yul\":9135:9157   */\n      swap1\n      pop\n        /* \"#utility.yul\":9166:9199   */\n      tag_217\n        /* \"#utility.yul\":9193:9198   */\n      dup2\n        /* \"#utility.yul\":9166:9199   */\n      tag_103\n      jump\t// in\n    tag_217:\n        /* \"#utility.yul\":9062:9205   */\n      swap3\n      swap2\n      pop\n      pop\n      jump\t// out\n        /* \"#utility.yul\":9211:10182   */\n    tag_83:\n        /* \"#utility.yul\":9314:9320   */\n      0x00\n        /* \"#utility.yul\":9322:9328   */\n      dup1\n        /* \"#utility.yul\":9330:9336   */\n      0x00\n        /* \"#utility.yul\":9338:9344   */\n      dup1\n        /* \"#utility.yul\":9346:9352   */\n      0x00\n        /* \"#utility.yul\":9395:9398   */\n      0xa0\n        /* \"#utility.yul\":9383:9392   */\n      dup7\n        /* \"#utility.yul\":9374:9381   */\n      dup9\n        /* \"#utility.yul\":9370:9393   */\n      sub\n        /* \"#utility.yul\":9366:9399   */\n      slt\n        /* \"#utility.yul\":9363:9483   */\n      iszero\n      tag_219\n      jumpi\n        /* \"#utility.yul\":9402:9481   */\n      tag_220\n      tag_94\n      jump\t// in\n    tag_220:\n        /* \"#utility.yul\":9363:9483   */\n    tag_219:\n        /* \"#utility.yul\":9522:9523   */\n      0x00\n        /* \"#utility.yul\":9547:9610   */\n      tag_221\n        /* \"#utility.yul\":9602:9609   */\n      dup9\n        /* \"#utility.yul\":9593:9599   */\n      dup3\n        /* \"#utility.yul\":9582:9591   */\n      dup10\n        /* \"#utility.yul\":9578:9600   */\n      add\n        /* \"#utility.yul\":9547:9610   */\n      tag_119\n      jump\t// in\n    tag_221:\n        /* \"#utility.yul\":9537:9610   */\n      swap6\n      pop\n        /* \"#utility.yul\":9493:9620   */\n      pop\n        /* \"#utility.yul\":9659:9661   */\n      0x20\n        /* \"#utility.yul\":9685:9748   */\n      tag_222\n        /* \"#utility.yul\":9740:9747   */\n      dup9\n        /* \"#utility.yul\":9731:9737   */\n      dup3\n        /* \"#utility.yul\":9720:9729   */\n      dup10\n        /* \"#utility.yul\":9716:9738   */\n      add\n        /* \"#utility.yul\":9685:9748   */\n      tag_122\n      jump\t// in\n    tag_222:\n        /* \"#utility.yul\":9675:9748   */\n      swap5\n      pop\n        /* \"#utility.yul\":9630:9758   */\n      pop\n        /* \"#utility.yul\":9797:9799   */\n      0x40\n        /* \"#utility.yul\":9823:9887   */\n      tag_223\n        /* \"#utility.yul\":9879:9886   */\n      dup9\n        /* \"#utility.yul\":9870:9876   */\n      dup3\n        /* \"#utility.yul\":9859:9868   */\n      dup10\n        /* \"#utility.yul\":9855:9877   */\n      add\n        /* \"#utility.yul\":9823:9887   */\n      tag_123\n      jump\t// in\n    tag_223:\n        /* \"#utility.yul\":9813:9887   */\n      swap4\n      pop\n        /* \"#utility.yul\":9768:9897   */\n      pop\n        /* \"#utility.yul\":9936:9938   */\n      0x60\n        /* \"#utility.yul\":9962:10026   */\n      tag_224\n        /* \"#utility.yul\":10018:10025   */\n      dup9\n        /* \"#utility.yul\":10009:10015   */\n      dup3\n        /* \"#utility.yul\":9998:10007   */\n      dup10\n        /* \"#utility.yul\":9994:10016   */\n      add\n        /* \"#utility.yul\":9962:10026   */\n      tag_123\n      jump\t// in\n    tag_224:\n        /* \"#utility.yul\":9952:10026   */\n      swap3\n      pop\n        /* \"#utility.yul\":9907:10036   */\n      pop\n        /* \"#utility.yul\":10075:10078   */\n      0x80\n        /* \"#utility.yul\":10102:10165   */\n      tag_225\n        /* \"#utility.yul\":10157:10164   */\n      dup9\n        /* \"#utility.yul\":10148:10154   */\n      dup3\n        /* \"#utility.yul\":10137:10146   */\n      dup10\n        /* \"#utility.yul\":10133:10155   */\n      add\n        /* \"#utility.yul\":10102:10165   */\n      tag_119\n      jump\t// in\n    tag_225:\n        /* \"#utility.yul\":10092:10165   */\n      swap2\n      pop\n        /* \"#utility.yul\":10046:10175   */\n      pop\n        /* \"#utility.yul\":9211:10182   */\n      swap3\n      swap6\n      pop\n      swap3\n      swap6\n      swap1\n      swap4\n      pop\n      jump\t// out\n        /* \"#utility.yul\":10188:10744   */\n    tag_85:\n        /* \"#utility.yul\":10227:10234   */\n      0x00\n        /* \"#utility.yul\":10250:10269   */\n      tag_227\n        /* \"#utility.yul\":10267:10268   */\n      dup3\n        /* \"#utility.yul\":10250:10269   */\n      tag_120\n      jump\t// in\n    tag_227:\n        /* \"#utility.yul\":10245:10269   */\n      swap2\n      pop\n        /* \"#utility.yul\":10283:10302   */\n      tag_228\n        /* \"#utility.yul\":10300:10301   */\n      dup4\n        /* \"#utility.yul\":10283:10302   */\n      tag_120\n      jump\t// in\n    tag_228:\n        /* \"#utility.yul\":10278:10302   */\n      swap3\n      pop\n        /* \"#utility.yul\":10337:10338   */\n      dup3\n        /* \"#utility.yul\":10334:10335   */\n      dup3\n        /* \"#utility.yul\":10330:10339   */\n      mul\n        /* \"#utility.yul\":10359:10388   */\n      tag_229\n        /* \"#utility.yul\":10376:10387   */\n      dup2\n        /* \"#utility.yul\":10359:10388   */\n      tag_120\n      jump\t// in\n    tag_229:\n        /* \"#utility.yul\":10348:10388   */\n      swap2\n      pop\n        /* \"#utility.yul\":10446:10512   */\n      0x8000000000000000000000000000000000000000000000000000000000000000\n        /* \"#utility.yul\":10443:10444   */\n      dup5\n        /* \"#utility.yul\":10440:10513   */\n      eq\n        /* \"#utility.yul\":10436:10437   */\n      0x00\n        /* \"#utility.yul\":10433:10434   */\n      dup5\n        /* \"#utility.yul\":10429:10438   */\n      slt\n        /* \"#utility.yul\":10425:10514   */\n      and\n        /* \"#utility.yul\":10422:10537   */\n      iszero\n      tag_230\n      jumpi\n        /* \"#utility.yul\":10517:10535   */\n      tag_231\n      tag_115\n      jump\t// in\n    tag_231:\n        /* \"#utility.yul\":10422:10537   */\n    tag_230:\n        /* \"#utility.yul\":10687:10688   */\n      dup3\n        /* \"#utility.yul\":10678:10685   */\n      dup3\n        /* \"#utility.yul\":10673:10689   */\n      sdiv\n        /* \"#utility.yul\":10670:10671   */\n      dup5\n        /* \"#utility.yul\":10667:10690   */\n      eq\n        /* \"#utility.yul\":10647:10648   */\n      dup4\n        /* \"#utility.yul\":10640:10649   */\n      iszero\n        /* \"#utility.yul\":10620:10704   */\n      or\n        /* \"#utility.yul\":10597:10737   */\n      tag_232\n      jumpi\n        /* \"#utility.yul\":10717:10735   */\n      tag_233\n      tag_115\n      jump\t// in\n    tag_233:\n        /* \"#utility.yul\":10597:10737   */\n    tag_232:\n        /* \"#utility.yul\":10235:10744   */\n      pop\n        /* \"#utility.yul\":10188:10744   */\n      swap3\n      swap2\n      pop\n      pop\n      jump\t// out\n\n    auxdata: 0xa2646970667358221220f7d4009d771df0549bda8d78f2d47f1b9ff75d1fed41919df20ba9217975c19564736f6c63430008180033\n}\n",
				"bytecode": {
					"linkReferences": {},
					"object": "608060405234801561000f575f80fd5b503360025f6101000a81548173ffffffffffffffffffffffffffffffffffffffff021916908373ffffffffffffffffffffffffffffffffffffffff160217905550610c668061005d5f395ff3fe608060405260043610610054575f3560e01c80633ccfd60b146100585780633e47d6f31461006e5780636b69a592146100aa5780638da5cb5b146100d4578063b60d4288146100fe578063dc0d3dff14610108575b5f80fd5b348015610063575f80fd5b5061006c610144565b005b348015610079575f80fd5b50610094600480360381019061008f91906106dd565b610379565b6040516100a19190610720565b60405180910390f35b3480156100b5575f80fd5b506100be61038e565b6040516100cb9190610720565b60405180910390f35b3480156100df575f80fd5b506100e861039a565b6040516100f59190610748565b60405180910390f35b6101066103bf565b005b348015610113575f80fd5b5061012e6004803603810190610129919061078b565b6104c6565b60405161013b9190610748565b60405180910390f35b60025f9054906101000a900473ffffffffffffffffffffffffffffffffffffffff1673ffffffffffffffffffffffffffffffffffffffff163373ffffffffffffffffffffffffffffffffffffffff16146101d3576040517f08c379a00000000000000000000000000000000000000000000000000000000081526004016101ca90610836565b60405180910390fd5b5f5b5f8054905081101561026f575f8082815481106101f5576101f4610854565b5b905f5260205f20015f9054906101000a900473ffffffffffffffffffffffffffffffffffffffff1690505f60015f8373ffffffffffffffffffffffffffffffffffffffff1673ffffffffffffffffffffffffffffffffffffffff1681526020019081526020015f20819055505080806001019150506101d5565b505f67ffffffffffffffff81111561028a57610289610881565b5b6040519080825280602002602001820160405280156102b85781602001602082028036833780820191505090505b505f90805190602001906102cd9291906105dd565b505f3373ffffffffffffffffffffffffffffffffffffffff16476040516102f3906108db565b5f6040518083038185875af1925050503d805f811461032d576040519150601f19603f3d011682016040523d82523d5f602084013e610332565b606091505b5050905080610376576040517f08c379a000000000000000000000000000000000000000000000000000000000815260040161036d90610939565b60405180910390fd5b50565b6001602052805f5260405f205f915090505481565b674563918244f4000081565b60025f9054906101000a900473ffffffffffffffffffffffffffffffffffffffff1681565b674563918244f400006103d134610500565b1015610412576040517f08c379a0000000000000000000000000000000000000000000000000000000008152600401610409906109a1565b60405180910390fd5b5f33908060018154018082558091505060019003905f5260205f20015f9091909190916101000a81548173ffffffffffffffffffffffffffffffffffffffff021916908373ffffffffffffffffffffffffffffffffffffffff1602179055503460015f3373ffffffffffffffffffffffffffffffffffffffff1673ffffffffffffffffffffffffffffffffffffffff1681526020019081526020015f205f8282546104bd91906109ec565b92505081905550565b5f81815481106104d4575f80fd5b905f5260205f20015f915054906101000a900473ffffffffffffffffffffffffffffffffffffffff1681565b5f8061050a610538565b90505f670de0b6b3a764000082856105229190610a1f565b61052c9190610a8d565b90508092505050919050565b5f8073694aa1769357215de4fac081bf1f309adc32530690505f8173ffffffffffffffffffffffffffffffffffffffff1663feaf968c6040518163ffffffff1660e01b815260040160a060405180830381865afa15801561059b573d5f803e3d5ffd5b505050506040513d601f19601f820116820180604052508101906105bf9190610b43565b5050509150506402540be400816105d69190610bba565b9250505090565b828054828255905f5260205f20908101928215610653579160200282015b82811115610652578251825f6101000a81548173ffffffffffffffffffffffffffffffffffffffff021916908373ffffffffffffffffffffffffffffffffffffffff160217905550916020019190600101906105fb565b5b5090506106609190610664565b5090565b5b8082111561067b575f815f905550600101610665565b5090565b5f80fd5b5f73ffffffffffffffffffffffffffffffffffffffff82169050919050565b5f6106ac82610683565b9050919050565b6106bc816106a2565b81146106c6575f80fd5b50565b5f813590506106d7816106b3565b92915050565b5f602082840312156106f2576106f161067f565b5b5f6106ff848285016106c9565b91505092915050565b5f819050919050565b61071a81610708565b82525050565b5f6020820190506107335f830184610711565b92915050565b610742816106a2565b82525050565b5f60208201905061075b5f830184610739565b92915050565b61076a81610708565b8114610774575f80fd5b50565b5f8135905061078581610761565b92915050565b5f602082840312156107a05761079f61067f565b5b5f6107ad84828501610777565b91505092915050565b5f82825260208201905092915050565b7f596f7520617265206e6f7420746865206f776e6572206f66207468697320636f5f8201527f6e74726163742100000000000000000000000000000000000000000000000000602082015250565b5f6108206027836107b6565b915061082b826107c6565b604082019050919050565b5f6020820190508181035f83015261084d81610814565b9050919050565b7f4e487b71000000000000000000000000000000000000000000000000000000005f52603260045260245ffd5b7f4e487b71000000000000000000000000000000000000000000000000000000005f52604160045260245ffd5b5f81905092915050565b50565b5f6108c65f836108ae565b91506108d1826108b8565b5f82019050919050565b5f6108e5826108bb565b9150819050919050565b7f43616c6c206661696c65640000000000000000000000000000000000000000005f82015250565b5f610923600b836107b6565b915061092e826108ef565b602082019050919050565b5f6020820190508181035f83015261095081610917565b9050919050565b7f4469646e742073656e6420656e6f7567682045746800000000000000000000005f82015250565b5f61098b6015836107b6565b915061099682610957565b602082019050919050565b5f6020820190508181035f8301526109b88161097f565b9050919050565b7f4e487b71000000000000000000000000000000000000000000000000000000005f52601160045260245ffd5b5f6109f682610708565b9150610a0183610708565b9250828201905080821115610a1957610a186109bf565b5b92915050565b5f610a2982610708565b9150610a3483610708565b9250828202610a4281610708565b91508282048414831517610a5957610a586109bf565b5b5092915050565b7f4e487b71000000000000000000000000000000000000000000000000000000005f52601260045260245ffd5b5f610a9782610708565b9150610aa283610708565b925082610ab257610ab1610a60565b5b828204905092915050565b5f69ffffffffffffffffffff82169050919050565b610adb81610abd565b8114610ae5575f80fd5b50565b5f81519050610af681610ad2565b92915050565b5f819050919050565b610b0e81610afc565b8114610b18575f80fd5b50565b5f81519050610b2981610b05565b92915050565b5f81519050610b3d81610761565b92915050565b5f805f805f60a08688031215610b5c57610b5b61067f565b5b5f610b6988828901610ae8565b9550506020610b7a88828901610b1b565b9450506040610b8b88828901610b2f565b9350506060610b9c88828901610b2f565b9250506080610bad88828901610ae8565b9150509295509295909350565b5f610bc482610afc565b9150610bcf83610afc565b9250828202610bdd81610afc565b91507f800000000000000000000000000000000000000000000000000000000000000084145f84121615610c1457610c136109bf565b5b8282058414831517610c2957610c286109bf565b5b509291505056fea2646970667358221220f7d4009d771df0549bda8d78f2d47f1b9ff75d1fed41919df20ba9217975c19564736f6c63430008180033",
					"opcodes": "PUSH1 0x80 PUSH1 0x40 MSTORE CALLVALUE DUP1 ISZERO PUSH2 0xF JUMPI PUSH0 DUP1 REVERT JUMPDEST POP CALLER PUSH1 0x2 PUSH0 PUSH2 0x100 EXP DUP2 SLOAD DUP2 PUSH20 0xFFFFFFFFFFFFFFFFFFFFFFFFFFFFFFFFFFFFFFFF MUL NOT AND SWAP1 DUP4 PUSH20 0xFFFFFFFFFFFFFFFFFFFFFFFFFFFFFFFFFFFFFFFF AND MUL OR SWAP1 SSTORE POP PUSH2 0xC66 DUP1 PUSH2 0x5D PUSH0 CODECOPY PUSH0 RETURN INVALID PUSH1 0x80 PUSH1 0x40 MSTORE PUSH1 0x4 CALLDATASIZE LT PUSH2 0x54 JUMPI PUSH0 CALLDATALOAD PUSH1 0xE0 SHR DUP1 PUSH4 0x3CCFD60B EQ PUSH2 0x58 JUMPI DUP1 PUSH4 0x3E47D6F3 EQ PUSH2 0x6E JUMPI DUP1 PUSH4 0x6B69A592 EQ PUSH2 0xAA JUMPI DUP1 PUSH4 0x8DA5CB5B EQ PUSH2 0xD4 JUMPI DUP1 PUSH4 0xB60D4288 EQ PUSH2 0xFE JUMPI DUP1 PUSH4 0xDC0D3DFF EQ PUSH2 0x108 JUMPI JUMPDEST PUSH0 DUP1 REVERT JUMPDEST CALLVALUE DUP1 ISZERO PUSH2 0x63 JUMPI PUSH0 DUP1 REVERT JUMPDEST POP PUSH2 0x6C PUSH2 0x144 JUMP JUMPDEST STOP JUMPDEST CALLVALUE DUP1 ISZERO PUSH2 0x79 JUMPI PUSH0 DUP1 REVERT JUMPDEST POP PUSH2 0x94 PUSH1 0x4 DUP1 CALLDATASIZE SUB DUP2 ADD SWAP1 PUSH2 0x8F SWAP2 SWAP1 PUSH2 0x6DD JUMP JUMPDEST PUSH2 0x379 JUMP JUMPDEST PUSH1 0x40 MLOAD PUSH2 0xA1 SWAP2 SWAP1 PUSH2 0x720 JUMP JUMPDEST PUSH1 0x40 MLOAD DUP1 SWAP2 SUB SWAP1 RETURN JUMPDEST CALLVALUE DUP1 ISZERO PUSH2 0xB5 JUMPI PUSH0 DUP1 REVERT JUMPDEST POP PUSH2 0xBE PUSH2 0x38E JUMP JUMPDEST PUSH1 0x40 MLOAD PUSH2 0xCB SWAP2 SWAP1 PUSH2 0x720 JUMP JUMPDEST PUSH1 0x40 MLOAD DUP1 SWAP2 SUB SWAP1 RETURN JUMPDEST CALLVALUE DUP1 ISZERO PUSH2 0xDF JUMPI PUSH0 DUP1 REVERT JUMPDEST POP PUSH2 0xE8 PUSH2 0x39A JUMP JUMPDEST PUSH1 0x40 MLOAD PUSH2 0xF5 SWAP2 SWAP1 PUSH2 0x748 JUMP JUMPDEST PUSH1 0x40 MLOAD DUP1 SWAP2 SUB SWAP1 RETURN JUMPDEST PUSH2 0x106 PUSH2 0x3BF JUMP JUMPDEST STOP JUMPDEST CALLVALUE DUP1 ISZERO PUSH2 0x113 JUMPI PUSH0 DUP1 REVERT JUMPDEST POP PUSH2 0x12E PUSH1 0x4 DUP1 CALLDATASIZE SUB DUP2 ADD SWAP1 PUSH2 0x129 SWAP2 SWAP1 PUSH2 0x78B JUMP JUMPDEST PUSH2 0x4C6 JUMP JUMPDEST PUSH1 0x40 MLOAD PUSH2 0x13B SWAP2 SWAP1 PUSH2 0x748 JUMP JUMPDEST PUSH1 0x40 MLOAD DUP1 SWAP2 SUB SWAP1 RETURN JUMPDEST PUSH1 0x2 PUSH0 SWAP1 SLOAD SWAP1 PUSH2 0x100 EXP SWAP1 DIV PUSH20 0xFFFFFFFFFFFFFFFFFFFFFFFFFFFFFFFFFFFFFFFF AND PUSH20 0xFFFFFFFFFFFFFFFFFFFFFFFFFFFFFFFFFFFFFFFF AND CALLER PUSH20 0xFFFFFFFFFFFFFFFFFFFFFFFFFFFFFFFFFFFFFFFF AND EQ PUSH2 0x1D3 JUMPI PUSH1 0x40 MLOAD PUSH32 0x8C379A000000000000000000000000000000000000000000000000000000000 DUP2 MSTORE PUSH1 0x4 ADD PUSH2 0x1CA SWAP1 PUSH2 0x836 JUMP JUMPDEST PUSH1 0x40 MLOAD DUP1 SWAP2 SUB SWAP1 REVERT JUMPDEST PUSH0 JUMPDEST PUSH0 DUP1 SLOAD SWAP1 POP DUP2 LT ISZERO PUSH2 0x26F JUMPI PUSH0 DUP1 DUP3 DUP2 SLOAD DUP2 LT PUSH2 0x1F5 JUMPI PUSH2 0x1F4 PUSH2 0x854 JUMP JUMPDEST JUMPDEST SWAP1 PUSH0 MSTORE PUSH1 0x20 PUSH0 KECCAK256 ADD PUSH0 SWAP1 SLOAD SWAP1 PUSH2 0x100 EXP SWAP1 DIV PUSH20 0xFFFFFFFFFFFFFFFFFFFFFFFFFFFFFFFFFFFFFFFF AND SWAP1 POP PUSH0 PUSH1 0x1 PUSH0 DUP4 PUSH20 0xFFFFFFFFFFFFFFFFFFFFFFFFFFFFFFFFFFFFFFFF AND PUSH20 0xFFFFFFFFFFFFFFFFFFFFFFFFFFFFFFFFFFFFFFFF AND DUP2 MSTORE PUSH1 0x20 ADD SWAP1 DUP2 MSTORE PUSH1 0x20 ADD PUSH0 KECCAK256 DUP2 SWAP1 SSTORE POP POP DUP1 DUP1 PUSH1 0x1 ADD SWAP2 POP POP PUSH2 0x1D5 JUMP JUMPDEST POP PUSH0 PUSH8 0xFFFFFFFFFFFFFFFF DUP2 GT ISZERO PUSH2 0x28A JUMPI PUSH2 0x289 PUSH2 0x881 JUMP JUMPDEST JUMPDEST PUSH1 0x40 MLOAD SWAP1 DUP1 DUP3 MSTORE DUP1 PUSH1 0x20 MUL PUSH1 0x20 ADD DUP3 ADD PUSH1 0x40 MSTORE DUP1 ISZERO PUSH2 0x2B8 JUMPI DUP2 PUSH1 0x20 ADD PUSH1 0x20 DUP3 MUL DUP1 CALLDATASIZE DUP4 CALLDATACOPY DUP1 DUP3 ADD SWAP2 POP POP SWAP1 POP JUMPDEST POP PUSH0 SWAP1 DUP1 MLOAD SWAP1 PUSH1 0x20 ADD SWAP1 PUSH2 0x2CD SWAP3 SWAP2 SWAP1 PUSH2 0x5DD JUMP JUMPDEST POP PUSH0 CALLER PUSH20 0xFFFFFFFFFFFFFFFFFFFFFFFFFFFFFFFFFFFFFFFF AND SELFBALANCE PUSH1 0x40 MLOAD PUSH2 0x2F3 SWAP1 PUSH2 0x8DB JUMP JUMPDEST PUSH0 PUSH1 0x40 MLOAD DUP1 DUP4 SUB DUP2 DUP6 DUP8 GAS CALL SWAP3 POP POP POP RETURNDATASIZE DUP1 PUSH0 DUP2 EQ PUSH2 0x32D JUMPI PUSH1 0x40 MLOAD SWAP2 POP PUSH1 0x1F NOT PUSH1 0x3F RETURNDATASIZE ADD AND DUP3 ADD PUSH1 0x40 MSTORE RETURNDATASIZE DUP3 MSTORE RETURNDATASIZE PUSH0 PUSH1 0x20 DUP5 ADD RETURNDATACOPY PUSH2 0x332 JUMP JUMPDEST PUSH1 0x60 SWAP2 POP JUMPDEST POP POP SWAP1 POP DUP1 PUSH2 0x376 JUMPI PUSH1 0x40 MLOAD PUSH32 0x8C379A000000000000000000000000000000000000000000000000000000000 DUP2 MSTORE PUSH1 0x4 ADD PUSH2 0x36D SWAP1 PUSH2 0x939 JUMP JUMPDEST PUSH1 0x40 MLOAD DUP1 SWAP2 SUB SWAP1 REVERT JUMPDEST POP JUMP JUMPDEST PUSH1 0x1 PUSH1 0x20 MSTORE DUP1 PUSH0 MSTORE PUSH1 0x40 PUSH0 KECCAK256 PUSH0 SWAP2 POP SWAP1 POP SLOAD DUP2 JUMP JUMPDEST PUSH8 0x4563918244F40000 DUP2 JUMP JUMPDEST PUSH1 0x2 PUSH0 SWAP1 SLOAD SWAP1 PUSH2 0x100 EXP SWAP1 DIV PUSH20 0xFFFFFFFFFFFFFFFFFFFFFFFFFFFFFFFFFFFFFFFF AND DUP2 JUMP JUMPDEST PUSH8 0x4563918244F40000 PUSH2 0x3D1 CALLVALUE PUSH2 0x500 JUMP JUMPDEST LT ISZERO PUSH2 0x412 JUMPI PUSH1 0x40 MLOAD PUSH32 0x8C379A000000000000000000000000000000000000000000000000000000000 DUP2 MSTORE PUSH1 0x4 ADD PUSH2 0x409 SWAP1 PUSH2 0x9A1 JUMP JUMPDEST PUSH1 0x40 MLOAD DUP1 SWAP2 SUB SWAP1 REVERT JUMPDEST PUSH0 CALLER SWAP1 DUP1 PUSH1 0x1 DUP2 SLOAD ADD DUP1 DUP3 SSTORE DUP1 SWAP2 POP POP PUSH1 0x1 SWAP1 SUB SWAP1 PUSH0 MSTORE PUSH1 0x20 PUSH0 KECCAK256 ADD PUSH0 SWAP1 SWAP2 SWAP1 SWAP2 SWAP1 SWAP2 PUSH2 0x100 EXP DUP2 SLOAD DUP2 PUSH20 0xFFFFFFFFFFFFFFFFFFFFFFFFFFFFFFFFFFFFFFFF MUL NOT AND SWAP1 DUP4 PUSH20 0xFFFFFFFFFFFFFFFFFFFFFFFFFFFFFFFFFFFFFFFF AND MUL OR SWAP1 SSTORE POP CALLVALUE PUSH1 0x1 PUSH0 CALLER PUSH20 0xFFFFFFFFFFFFFFFFFFFFFFFFFFFFFFFFFFFFFFFF AND PUSH20 0xFFFFFFFFFFFFFFFFFFFFFFFFFFFFFFFFFFFFFFFF AND DUP2 MSTORE PUSH1 0x20 ADD SWAP1 DUP2 MSTORE PUSH1 0x20 ADD PUSH0 KECCAK256 PUSH0 DUP3 DUP3 SLOAD PUSH2 0x4BD SWAP2 SWAP1 PUSH2 0x9EC JUMP JUMPDEST SWAP3 POP POP DUP2 SWAP1 SSTORE POP JUMP JUMPDEST PUSH0 DUP2 DUP2 SLOAD DUP2 LT PUSH2 0x4D4 JUMPI PUSH0 DUP1 REVERT JUMPDEST SWAP1 PUSH0 MSTORE PUSH1 0x20 PUSH0 KECCAK256 ADD PUSH0 SWAP2 POP SLOAD SWAP1 PUSH2 0x100 EXP SWAP1 DIV PUSH20 0xFFFFFFFFFFFFFFFFFFFFFFFFFFFFFFFFFFFFFFFF AND DUP2 JUMP JUMPDEST PUSH0 DUP1 PUSH2 0x50A PUSH2 0x538 JUMP JUMPDEST SWAP1 POP PUSH0 PUSH8 0xDE0B6B3A7640000 DUP3 DUP6 PUSH2 0x522 SWAP2 SWAP1 PUSH2 0xA1F JUMP JUMPDEST PUSH2 0x52C SWAP2 SWAP1 PUSH2 0xA8D JUMP JUMPDEST SWAP1 POP DUP1 SWAP3 POP POP POP SWAP2 SWAP1 POP JUMP JUMPDEST PUSH0 DUP1 PUSH20 0x694AA1769357215DE4FAC081BF1F309ADC325306 SWAP1 POP PUSH0 DUP2 PUSH20 0xFFFFFFFFFFFFFFFFFFFFFFFFFFFFFFFFFFFFFFFF AND PUSH4 0xFEAF968C PUSH1 0x40 MLOAD DUP2 PUSH4 0xFFFFFFFF AND PUSH1 0xE0 SHL DUP2 MSTORE PUSH1 0x4 ADD PUSH1 0xA0 PUSH1 0x40 MLOAD DUP1 DUP4 SUB DUP2 DUP7 GAS STATICCALL ISZERO DUP1 ISZERO PUSH2 0x59B JUMPI RETURNDATASIZE PUSH0 DUP1 RETURNDATACOPY RETURNDATASIZE PUSH0 REVERT JUMPDEST POP POP POP POP PUSH1 0x40 MLOAD RETURNDATASIZE PUSH1 0x1F NOT PUSH1 0x1F DUP3 ADD AND DUP3 ADD DUP1 PUSH1 0x40 MSTORE POP DUP2 ADD SWAP1 PUSH2 0x5BF SWAP2 SWAP1 PUSH2 0xB43 JUMP JUMPDEST POP POP POP SWAP2 POP POP PUSH5 0x2540BE400 DUP2 PUSH2 0x5D6 SWAP2 SWAP1 PUSH2 0xBBA JUMP JUMPDEST SWAP3 POP POP POP SWAP1 JUMP JUMPDEST DUP3 DUP1 SLOAD DUP3 DUP3 SSTORE SWAP1 PUSH0 MSTORE PUSH1 0x20 PUSH0 KECCAK256 SWAP1 DUP2 ADD SWAP3 DUP3 ISZERO PUSH2 0x653 JUMPI SWAP2 PUSH1 0x20 MUL DUP3 ADD JUMPDEST DUP3 DUP2 GT ISZERO PUSH2 0x652 JUMPI DUP3 MLOAD DUP3 PUSH0 PUSH2 0x100 EXP DUP2 SLOAD DUP2 PUSH20 0xFFFFFFFFFFFFFFFFFFFFFFFFFFFFFFFFFFFFFFFF MUL NOT AND SWAP1 DUP4 PUSH20 0xFFFFFFFFFFFFFFFFFFFFFFFFFFFFFFFFFFFFFFFF AND MUL OR SWAP1 SSTORE POP SWAP2 PUSH1 0x20 ADD SWAP2 SWAP1 PUSH1 0x1 ADD SWAP1 PUSH2 0x5FB JUMP JUMPDEST JUMPDEST POP SWAP1 POP PUSH2 0x660 SWAP2 SWAP1 PUSH2 0x664 JUMP JUMPDEST POP SWAP1 JUMP JUMPDEST JUMPDEST DUP1 DUP3 GT ISZERO PUSH2 0x67B JUMPI PUSH0 DUP2 PUSH0 SWAP1 SSTORE POP PUSH1 0x1 ADD PUSH2 0x665 JUMP JUMPDEST POP SWAP1 JUMP JUMPDEST PUSH0 DUP1 REVERT JUMPDEST PUSH0 PUSH20 0xFFFFFFFFFFFFFFFFFFFFFFFFFFFFFFFFFFFFFFFF DUP3 AND SWAP1 POP SWAP2 SWAP1 POP JUMP JUMPDEST PUSH0 PUSH2 0x6AC DUP3 PUSH2 0x683 JUMP JUMPDEST SWAP1 POP SWAP2 SWAP1 POP JUMP JUMPDEST PUSH2 0x6BC DUP2 PUSH2 0x6A2 JUMP JUMPDEST DUP2 EQ PUSH2 0x6C6 JUMPI PUSH0 DUP1 REVERT JUMPDEST POP JUMP JUMPDEST PUSH0 DUP2 CALLDATALOAD SWAP1 POP PUSH2 0x6D7 DUP2 PUSH2 0x6B3 JUMP JUMPDEST SWAP3 SWAP2 POP POP JUMP JUMPDEST PUSH0 PUSH1 0x20 DUP3 DUP5 SUB SLT ISZERO PUSH2 0x6F2 JUMPI PUSH2 0x6F1 PUSH2 0x67F JUMP JUMPDEST JUMPDEST PUSH0 PUSH2 0x6FF DUP5 DUP3 DUP6 ADD PUSH2 0x6C9 JUMP JUMPDEST SWAP2 POP POP SWAP3 SWAP2 POP POP JUMP JUMPDEST PUSH0 DUP2 SWAP1 POP SWAP2 SWAP1 POP JUMP JUMPDEST PUSH2 0x71A DUP2 PUSH2 0x708 JUMP JUMPDEST DUP3 MSTORE POP POP JUMP JUMPDEST PUSH0 PUSH1 0x20 DUP3 ADD SWAP1 POP PUSH2 0x733 PUSH0 DUP4 ADD DUP5 PUSH2 0x711 JUMP JUMPDEST SWAP3 SWAP2 POP POP JUMP JUMPDEST PUSH2 0x742 DUP2 PUSH2 0x6A2 JUMP JUMPDEST DUP3 MSTORE POP POP JUMP JUMPDEST PUSH0 PUSH1 0x20 DUP3 ADD SWAP1 POP PUSH2 0x75B PUSH0 DUP4 ADD DUP5 PUSH2 0x739 JUMP JUMPDEST SWAP3 SWAP2 POP POP JUMP JUMPDEST PUSH2 0x76A DUP2 PUSH2 0x708 JUMP JUMPDEST DUP2 EQ PUSH2 0x774 JUMPI PUSH0 DUP1 REVERT JUMPDEST POP JUMP JUMPDEST PUSH0 DUP2 CALLDATALOAD SWAP1 POP PUSH2 0x785 DUP2 PUSH2 0x761 JUMP JUMPDEST SWAP3 SWAP2 POP POP JUMP JUMPDEST PUSH0 PUSH1 0x20 DUP3 DUP5 SUB SLT ISZERO PUSH2 0x7A0 JUMPI PUSH2 0x79F PUSH2 0x67F JUMP JUMPDEST JUMPDEST PUSH0 PUSH2 0x7AD DUP5 DUP3 DUP6 ADD PUSH2 0x777 JUMP JUMPDEST SWAP2 POP POP SWAP3 SWAP2 POP POP JUMP JUMPDEST PUSH0 DUP3 DUP3 MSTORE PUSH1 0x20 DUP3 ADD SWAP1 POP SWAP3 SWAP2 POP POP JUMP JUMPDEST PUSH32 0x596F7520617265206E6F7420746865206F776E6572206F66207468697320636F PUSH0 DUP3 ADD MSTORE PUSH32 0x6E74726163742100000000000000000000000000000000000000000000000000 PUSH1 0x20 DUP3 ADD MSTORE POP JUMP JUMPDEST PUSH0 PUSH2 0x820 PUSH1 0x27 DUP4 PUSH2 0x7B6 JUMP JUMPDEST SWAP2 POP PUSH2 0x82B DUP3 PUSH2 0x7C6 JUMP JUMPDEST PUSH1 0x40 DUP3 ADD SWAP1 POP SWAP2 SWAP1 POP JUMP JUMPDEST PUSH0 PUSH1 0x20 DUP3 ADD SWAP1 POP DUP2 DUP2 SUB PUSH0 DUP4 ADD MSTORE PUSH2 0x84D DUP2 PUSH2 0x814 JUMP JUMPDEST SWAP1 POP SWAP2 SWAP1 POP JUMP JUMPDEST PUSH32 0x4E487B7100000000000000000000000000000000000000000000000000000000 PUSH0 MSTORE PUSH1 0x32 PUSH1 0x4 MSTORE PUSH1 0x24 PUSH0 REVERT JUMPDEST PUSH32 0x4E487B7100000000000000000000000000000000000000000000000000000000 PUSH0 MSTORE PUSH1 0x41 PUSH1 0x4 MSTORE PUSH1 0x24 PUSH0 REVERT JUMPDEST PUSH0 DUP2 SWAP1 POP SWAP3 SWAP2 POP POP JUMP JUMPDEST POP JUMP JUMPDEST PUSH0 PUSH2 0x8C6 PUSH0 DUP4 PUSH2 0x8AE JUMP JUMPDEST SWAP2 POP PUSH2 0x8D1 DUP3 PUSH2 0x8B8 JUMP JUMPDEST PUSH0 DUP3 ADD SWAP1 POP SWAP2 SWAP1 POP JUMP JUMPDEST PUSH0 PUSH2 0x8E5 DUP3 PUSH2 0x8BB JUMP JUMPDEST SWAP2 POP DUP2 SWAP1 POP SWAP2 SWAP1 POP JUMP JUMPDEST PUSH32 0x43616C6C206661696C6564000000000000000000000000000000000000000000 PUSH0 DUP3 ADD MSTORE POP JUMP JUMPDEST PUSH0 PUSH2 0x923 PUSH1 0xB DUP4 PUSH2 0x7B6 JUMP JUMPDEST SWAP2 POP PUSH2 0x92E DUP3 PUSH2 0x8EF JUMP JUMPDEST PUSH1 0x20 DUP3 ADD SWAP1 POP SWAP2 SWAP1 POP JUMP JUMPDEST PUSH0 PUSH1 0x20 DUP3 ADD SWAP1 POP DUP2 DUP2 SUB PUSH0 DUP4 ADD MSTORE PUSH2 0x950 DUP2 PUSH2 0x917 JUMP JUMPDEST SWAP1 POP SWAP2 SWAP1 POP JUMP JUMPDEST PUSH32 0x4469646E742073656E6420656E6F756768204574680000000000000000000000 PUSH0 DUP3 ADD MSTORE POP JUMP JUMPDEST PUSH0 PUSH2 0x98B PUSH1 0x15 DUP4 PUSH2 0x7B6 JUMP JUMPDEST SWAP2 POP PUSH2 0x996 DUP3 PUSH2 0x957 JUMP JUMPDEST PUSH1 0x20 DUP3 ADD SWAP1 POP SWAP2 SWAP1 POP JUMP JUMPDEST PUSH0 PUSH1 0x20 DUP3 ADD SWAP1 POP DUP2 DUP2 SUB PUSH0 DUP4 ADD MSTORE PUSH2 0x9B8 DUP2 PUSH2 0x97F JUMP JUMPDEST SWAP1 POP SWAP2 SWAP1 POP JUMP JUMPDEST PUSH32 0x4E487B7100000000000000000000000000000000000000000000000000000000 PUSH0 MSTORE PUSH1 0x11 PUSH1 0x4 MSTORE PUSH1 0x24 PUSH0 REVERT JUMPDEST PUSH0 PUSH2 0x9F6 DUP3 PUSH2 0x708 JUMP JUMPDEST SWAP2 POP PUSH2 0xA01 DUP4 PUSH2 0x708 JUMP JUMPDEST SWAP3 POP DUP3 DUP3 ADD SWAP1 POP DUP1 DUP3 GT ISZERO PUSH2 0xA19 JUMPI PUSH2 0xA18 PUSH2 0x9BF JUMP JUMPDEST JUMPDEST SWAP3 SWAP2 POP POP JUMP JUMPDEST PUSH0 PUSH2 0xA29 DUP3 PUSH2 0x708 JUMP JUMPDEST SWAP2 POP PUSH2 0xA34 DUP4 PUSH2 0x708 JUMP JUMPDEST SWAP3 POP DUP3 DUP3 MUL PUSH2 0xA42 DUP2 PUSH2 0x708 JUMP JUMPDEST SWAP2 POP DUP3 DUP3 DIV DUP5 EQ DUP4 ISZERO OR PUSH2 0xA59 JUMPI PUSH2 0xA58 PUSH2 0x9BF JUMP JUMPDEST JUMPDEST POP SWAP3 SWAP2 POP POP JUMP JUMPDEST PUSH32 0x4E487B7100000000000000000000000000000000000000000000000000000000 PUSH0 MSTORE PUSH1 0x12 PUSH1 0x4 MSTORE PUSH1 0x24 PUSH0 REVERT JUMPDEST PUSH0 PUSH2 0xA97 DUP3 PUSH2 0x708 JUMP JUMPDEST SWAP2 POP PUSH2 0xAA2 DUP4 PUSH2 0x708 JUMP JUMPDEST SWAP3 POP DUP3 PUSH2 0xAB2 JUMPI PUSH2 0xAB1 PUSH2 0xA60 JUMP JUMPDEST JUMPDEST DUP3 DUP3 DIV SWAP1 POP SWAP3 SWAP2 POP POP JUMP JUMPDEST PUSH0 PUSH10 0xFFFFFFFFFFFFFFFFFFFF DUP3 AND SWAP1 POP SWAP2 SWAP1 POP JUMP JUMPDEST PUSH2 0xADB DUP2 PUSH2 0xABD JUMP JUMPDEST DUP2 EQ PUSH2 0xAE5 JUMPI PUSH0 DUP1 REVERT JUMPDEST POP JUMP JUMPDEST PUSH0 DUP2 MLOAD SWAP1 POP PUSH2 0xAF6 DUP2 PUSH2 0xAD2 JUMP JUMPDEST SWAP3 SWAP2 POP POP JUMP JUMPDEST PUSH0 DUP2 SWAP1 POP SWAP2 SWAP1 POP JUMP JUMPDEST PUSH2 0xB0E DUP2 PUSH2 0xAFC JUMP JUMPDEST DUP2 EQ PUSH2 0xB18 JUMPI PUSH0 DUP1 REVERT JUMPDEST POP JUMP JUMPDEST PUSH0 DUP2 MLOAD SWAP1 POP PUSH2 0xB29 DUP2 PUSH2 0xB05 JUMP JUMPDEST SWAP3 SWAP2 POP POP JUMP JUMPDEST PUSH0 DUP2 MLOAD SWAP1 POP PUSH2 0xB3D DUP2 PUSH2 0x761 JUMP JUMPDEST SWAP3 SWAP2 POP POP JUMP JUMPDEST PUSH0 DUP1 PUSH0 DUP1 PUSH0 PUSH1 0xA0 DUP7 DUP9 SUB SLT ISZERO PUSH2 0xB5C JUMPI PUSH2 0xB5B PUSH2 0x67F JUMP JUMPDEST JUMPDEST PUSH0 PUSH2 0xB69 DUP9 DUP3 DUP10 ADD PUSH2 0xAE8 JUMP JUMPDEST SWAP6 POP POP PUSH1 0x20 PUSH2 0xB7A DUP9 DUP3 DUP10 ADD PUSH2 0xB1B JUMP JUMPDEST SWAP5 POP POP PUSH1 0x40 PUSH2 0xB8B DUP9 DUP3 DUP10 ADD PUSH2 0xB2F JUMP JUMPDEST SWAP4 POP POP PUSH1 0x60 PUSH2 0xB9C DUP9 DUP3 DUP10 ADD PUSH2 0xB2F JUMP JUMPDEST SWAP3 POP POP PUSH1 0x80 PUSH2 0xBAD DUP9 DUP3 DUP10 ADD PUSH2 0xAE8 JUMP JUMPDEST SWAP2 POP POP SWAP3 SWAP6 POP SWAP3 SWAP6 SWAP1 SWAP4 POP JUMP JUMPDEST PUSH0 PUSH2 0xBC4 DUP3 PUSH2 0xAFC JUMP JUMPDEST SWAP2 POP PUSH2 0xBCF DUP4 PUSH2 0xAFC JUMP JUMPDEST SWAP3 POP DUP3 DUP3 MUL PUSH2 0xBDD DUP2 PUSH2 0xAFC JUMP JUMPDEST SWAP2 POP PUSH32 0x8000000000000000000000000000000000000000000000000000000000000000 DUP5 EQ PUSH0 DUP5 SLT AND ISZERO PUSH2 0xC14 JUMPI PUSH2 0xC13 PUSH2 0x9BF JUMP JUMPDEST JUMPDEST DUP3 DUP3 SDIV DUP5 EQ DUP4 ISZERO OR PUSH2 0xC29 JUMPI PUSH2 0xC28 PUSH2 0x9BF JUMP JUMPDEST JUMPDEST POP SWAP3 SWAP2 POP POP JUMP INVALID LOG2 PUSH5 0x6970667358 0x22 SLT KECCAK256 0xF7 0xD4 STOP SWAP14 PUSH24 0x1DF0549BDA8D78F2D47F1B9FF75D1FED41919DF20BA92179 PUSH22 0xC19564736F6C63430008180033000000000000000000 "
				},
				"gasEstimates": {
					"creation": {
						"codeDepositCost": "634800",
						"executionCost": "24933",
						"totalCost": "659733"
					},
					"external": {
						"MINIMUM_USD()": "347",
						"addressToAmountFunded(address)": "2802",
						"fund()": "infinite",
						"funders(uint256)": "5031",
						"owner()": "2552",
						"withdraw()": "infinite"
					}
				},
				"methodIdentifiers": {
					"MINIMUM_USD()": "6b69a592",
					"addressToAmountFunded(address)": "3e47d6f3",
					"fund()": "b60d4288",
					"funders(uint256)": "dc0d3dff",
					"owner()": "8da5cb5b",
					"withdraw()": "3ccfd60b"
				}
			},
			"storageLayout": {
				"storage": [
					{
						"astId": 58,
						"contract": "contracts/FundMe.sol:FundMe",
						"label": "funders",
						"offset": 0,
						"slot": "0",
						"type": "t_array(t_address)dyn_storage"
					},
					{
						"astId": 62,
						"contract": "contracts/FundMe.sol:FundMe",
						"label": "addressToAmountFunded",
						"offset": 0,
						"slot": "1",
						"type": "t_mapping(t_address,t_uint256)"
					},
					{
						"astId": 64,
						"contract": "contracts/FundMe.sol:FundMe",
						"label": "owner",
						"offset": 0,
						"slot": "2",
						"type": "t_address"
					}
				],
				"types": {
					"t_address": {
						"encoding": "inplace",
						"label": "address",
						"numberOfBytes": "20"
					},
					"t_array(t_address)dyn_storage": {
						"base": "t_address",
						"encoding": "dynamic_array",
						"label": "address[]",
						"numberOfBytes": "32"
					},
					"t_mapping(t_address,t_uint256)": {
						"encoding": "mapping",
						"key": "t_address",
						"label": "mapping(address => uint256)",
						"numberOfBytes": "32",
						"value": "t_uint256"
					},
					"t_uint256": {
						"encoding": "inplace",
						"label": "uint256",
						"numberOfBytes": "32"
					}
				}
			},
			"userdoc": {
				"kind": "user",
				"methods": {},
				"version": 1
			}
		}
	}
}